:100000000C945B000C9407020C9434020C94830053
:100010000C9483000C9483000C9483000C94830054
:100020000C9483000C9483000C9483000C94830044
:100030000C9483000C9483000C9483000C94830034
:100040000C9461020C9483000C94FE030C948300C6
:100050000C9483000C9483000C9483000C94830014
:100060000C9483000C948300000024272A000025B0
:10007000282B000023262904040404040404040299
:100080000202020202030303030303010204081035
:100090002040800102040810200102040810200002
:1000A0000000070002010000030406000000000039
:1000B00000000000FC0111241FBECFEFD4E0DEBF22
:1000C000CDBF11E0A0E0B1E0ECE8FCE002C005909B
:1000D0000D92A631B107D9F711E0A6E1B1E001C058
:1000E0001D92A63BB107E1F710E0C6EBD0E004C0DB
:1000F0002297FE010E940906C43BD107C9F70E945E
:10010000F7010C9444060C940000A0E0B0E0EBE88A
:10011000F0E00C941506EC01A880B980CA80DB8061
:10012000A114B104C104D10441F484E2A82E89EDE4
:10013000B82E8BE5C82E87E0D82EC601B5012DE17B
:1001400033EF41E050E00E94D80527EA31E440E077
:1001500050E00E9484057B018C01C601B5012DE1B0
:1001600033EF41E050E00E94D805CA01B9012CEEFE
:1001700034EF4FEF5FEF0E9484056E0D7F1D801FEF
:10018000911F97FF04C06150704080409048688381
:1001900079838A839B839B01AC015F77B901CA0194
:1001A000CDB7DEB7EAE00C9431060E9485000895D1
:1001B00080E091E00E9485000895609300017093B3
:1001C0000101809302019093030108950F931F93FF
:1001D000609116017091170181E061307807ACF0F1
:1001E0006050714070931D0160931C018091040167
:1001F0000E94350360E071E080911C0190911D0127
:10020000681B790B80910A0108C080910A010E9445
:10021000350360E070E0809104010E943503609135
:1002200018017091190181E061307807ACF06050DD
:10023000714070931D0160931C01809106010E9422
:10024000350360E071E080911C0190911D01681BF5
:10025000790B80910C0108C080910C010E9435033C
:1002600060E070E0809106010E94350360911A0100
:1002700070911B0181E061307807ACF060507140F3
:1002800070931D0160931C01809108010E94350349
:1002900060E071E080911C0190911D01681B790B59
:1002A00080910E0108C080910E010E94350360E02C
:1002B00070E0809108010E94350320911601309171
:1002C0001701121613069CF4B901882777FD809553
:1002D000982F0E94F80423E333E343EB5FE30E948B
:1002E0005D040E94C504709317016093160120916C
:1002F000180130911901121613069CF4B9018827D0
:1003000077FD8095982F0E94F80423E333E343EBB5
:100310005FE30E945D040E94C5047093190160931D
:10032000180120911A0130911B01121613069CF43A
:10033000B901882777FD8095982F0E94F80423E360
:1003400033E343EB5FE30E945D040E94C5047093B6
:100350001B0160931A0180911E0190911F01459726
:10036000A4F1009116011091170164EF71E080E093
:1003700090E00E943B04060F171F10931701009393
:100380001601009118011091190164EF71E080E0ED
:1003900090E00E943B04060F171F10931901009371
:1003A000180100911A0110911B0164EF71E080E0C7
:1003B00090E00E943B04060F171F10931B0100934F
:1003C0001A0110921F0110921E0180911E0190913E
:1003D0001F01019690931F0180931E0162E370E05C
:1003E00080E090E00E94D1021F910F9108950E9439
:1003F000FB020E94E600FDCF84E191E09093210191
:10040000809320010895862F0E94F60308951F927D
:100410000F920FB60F9211242F933F934F935F9338
:100420006F937F938F939F93AF93BF93EF93FF93BC
:100430008091220190912301892B29F0E0912201E2
:10044000F09123010995FF91EF91BF91AF919F9199
:100450008F917F916F915F914F913F912F910F906D
:100460000FBE0F901F9018951F920F920FB60F920C
:1004700011242F933F934F935F936F937F938F93A9
:100480009F93AF93BF93EF93FF938091240190913B
:100490002501892B29F0E0912401F091250109958E
:1004A000FF91EF91BF91AF919F918F917F916F914C
:1004B0005F914F913F912F910F900FBE0F901F9022
:1004C00018951F920F920FB60F9211242F938F93AE
:1004D0009F93AF93BF938091260190912701A091A4
:1004E0002801B09129010196A11DB11D809326011B
:1004F00090932701A0932801B093290180912A01AC
:1005000090912B01A0912C01B0912D018050904C25
:10051000AF4FBF4F80932A0190932B01A0932C01E2
:10052000B0932D0127C080912A0190912B01A091B9
:100530002C01B0912D0180589E43A040B040809383
:100540002A0190932B01A0932C01B0932D0180914F
:100550002E0190912F01A0913001B09131010196AF
:10056000A11DB11D80932E0190932F01A093300106
:10057000B093310180912A0190912B01A0912C011F
:10058000B0912D0181589E43A040B04060F6BF91CC
:10059000AF919F918F912F910F900FBE0F901F9051
:1005A0001895EF92FF920F931F937B018C018FB7E9
:1005B000F89440912E0150912F016091300170917B
:1005C00031018FBF2FB7F89480912E0190912F01A8
:1005D000A0913001B09131012FBF841B950BA60B68
:1005E000B70BE816F9060A071B0760F71F910F9172
:1005F000FF90EF900895789484B5826084BD84B5AF
:10060000816084BD85B5826085BD85B5816085BD0D
:10061000EEE6F0E0808181608083E1E8F0E08081B7
:1006200082608083808181608083E0E8F0E0808167
:1006300081608083E1EBF0E0808184608083E0EB87
:10064000F0E0808181608083EAE7F0E0808184606F
:1006500080838081826080838081816080838081CB
:10066000806880831092C10008951F93CF93DF9319
:10067000182FEB0161E00E948D03E12FF0E0E156BD
:10068000FF4F8491833051F4809180008068809383
:100690008000D0938900C09388003BC0843051F41F
:1006A00080918000806280938000D0938B00C09303
:1006B0008A002FC0813039F4209729F184B58068F1
:1006C00084BDC7BD26C0823039F42097E1F084B5DF
:1006D000806284BDC8BD1DC0863041F48091B000E9
:1006E00080688093B000C093B30013C0873041F49A
:1006F0008091B00080628093B000C093B40009C0C4
:10070000C038D10514F460E001C061E0812F0E947F
:10071000AB03DF91CF911F910895282F30E0C901DD
:1007200085579F4FFC01949129583F4FF9018491BF
:10073000882381F0E82FF0E0E859FF4FE491F0E0E2
:10074000662329F480819095892380830895808190
:10075000892B80830895482F50E0CA0181569F4F0E
:10076000FC012491CA0185579F4FFC01949149587F
:100770005F4FFA0134913323C1F1222331F1233049
:1007800021F4809180008F7705C0243031F480916E
:1007900080008F7D8093800018C0213019F484B5CB
:1007A0008F7704C0223021F484B58F7D84BD0DC0C5
:1007B000263021F48091B0008F7705C0273029F4CE
:1007C0008091B0008F7D8093B000E32FF0E0E3597B
:1007D000FF4FE491F0E0662329F48081909589230E
:1007E000808308958081892B80830895982F80913C
:1007F000C00085FFFCCF9093C60008951F920F9212
:100800000FB60F9211242F933F934F935F936F93E3
:100810007F938F939F93AF93BF93EF93FF934091F9
:10082000C600E0913201F0913301CF01019660E8FA
:1008300070E00E94A3059C018091340190913501E4
:100840002817390739F0EA5CFE4F408330933301B3
:1008500020933201FF91EF91BF91AF919F918F91C2
:100860007F916F915F914F913F912F910F900FBEAC
:100870000F901F901895EF92FF920F931F937B019B
:100880008C01611571058105910529F420E030E0A6
:1008900040E050E00BC00E94D800A80197010E94E0
:1008A000D805AC01CB01DA019C01AD01B901CA0147
:1008B0001F910F91FF90EF9008950CD0EBC0E3D003
:1008C00040F0DAD030F021F45F3F19F0CCC0511184
:1008D00015C1CFC0F0D098F39923C9F35523B1F3D4
:1008E000951B550BBB27AA2762177307840738F09F
:1008F0009F5F5F4F220F331F441FAA1FA9F333D0FE
:100900000E2E3AF0E0E830D091505040E695001CB1
:10091000CAF729D0FE2F27D0660F771F881FBB1F6D
:10092000261737074807AB07B0E809F0BB0B802D47
:10093000BF01FF2793585F4F2AF09E3F510568F093
:1009400092C0DCC05F3FECF3983EDCF38695779570
:100950006795B795F7959F5FC9F7880F911D969595
:10096000879597F90895E1E0660F771F881FBB1FF1
:10097000621773078407BA0720F0621B730B840B9E
:10098000BA0BEE1F88F7E095089504D06894B11172
:10099000B5C0089598D088F09F5790F0B92F992747
:1009A000B751A0F0D1F0660F771F881F991F1AF07A
:1009B000BA95C9F712C0B13081F09FD0B1E0089567
:1009C0009CC0672F782F8827B85F39F0B93FCCF3E8
:1009D000869577956795B395D9F73EF49095809570
:1009E000709561957F4F8F4F9F4F0895E89409C090
:1009F00097FB3EF490958095709561957F4F8F4F52
:100A00009F4F9923A9F0F92F96E9BB279395F69567
:100A1000879577956795B795F111F8CFFAF4BB0FE5
:100A200011F460FF1BC06F5F7F4F8F4F9F4F16C049
:100A3000882311F096E911C0772321F09EE8872FD3
:100A4000762F05C0662371F096E8862F70E060E08F
:100A50002AF09A95660F771F881FDAF7880F969508
:100A6000879597F9089597F99F6780E870E060E0AF
:100A700008959FEF80EC089500240A941616170637
:100A800018060906089500240A941216130614067F
:100A900005060895092E0394000C11F4882352F0E2
:100AA000BB0F40F4BF2B11F460FF04C06F5F7F4F9A
:100AB0008F4F9F4F089557FD9058440F551F59F081
:100AC0005F3F71F04795880F97FB991F61F09F3F3B
:100AD00079F087950895121613061406551FF2CF64
:100AE0004695F1DF08C0161617061806991FF1CFB4
:100AF00086957105610508940895E894BB276627DB
:100B00007727CB0197F90895629FD001739FF00179
:100B1000829FE00DF11D649FE00DF11D929FF00D8D
:100B2000839FF00D749FF00D659FF00D9927729FC4
:100B3000B00DE11DF91F639FB00DE11DF91FBD014F
:100B4000CF011124089597FB092E07260AD077FDBF
:100B500004D049D006D000201AF4709561957F4FDB
:100B60000895F6F7909581959F4F0895A1E21A2E6A
:100B7000AA1BBB1BFD010DC0AA1FBB1FEE1FFF1F41
:100B8000A217B307E407F50720F0A21BB30BE40B91
:100B9000F50B661F771F881F991F1A9469F76095D8
:100BA0007095809590959B01AC01BD01CF01089592
:100BB00097FB092E05260ED057FD04D0D7DF0AD0AB
:100BC000001C38F450954095309521953F4F4F4F7C
:100BD0005F4F0895F6F790958095709561957F4FDA
:100BE0008F4F9F4F0895AA1BBB1B51E107C0AA1F3F
:100BF000BB1FA617B70710F0A61BB70B881F991FBE
:100C00005A95A9F780959095BC01CD010895EE0FF6
:100C1000FF1F0590F491E02D09942F923F924F927F
:100C20005F926F927F928F929F92AF92BF92CF927C
:100C3000DF92EF92FF920F931F93CF93DF93CDB785
:100C4000DEB7CA1BDB0B0FB6F894DEBF0FBECDBFFD
:100C500009942A88398848885F846E847D848C84CE
:100C60009B84AA84B984C884DF80EE80FD800C81D7
:100C70001B81AA81B981CE0FD11D0FB6F894DEBFBA
:0C0C80000FBECDBFED010895F894FFCF2A
:100C8C0001000000050009000A00030006000B002B
:060C9C000000000003024D
:00000001FF
