:100000000C9435000C94F0000C941D010C945D00D0
:100010000C945D000C945D000C945D000C945D00EC
:100020000C945D000C945F000C945D000C945D00DA
:100030000C945D000C945D000C945D000C945D00CC
:100040000C944A010C945D000C9426020C945D0003
:100050000C945D000C945D000C945D000C945D00AC
:100060000C945D000C945D00E50011241FBECFEFE1
:10007000D4E0DEBFCDBF11E0A0E0B1E0E4E2F5E006
:1000800002C005900D92AA30B107D9F711E0AAE09D
:10009000B1E001C01D92A33AB107E1F710E0CAE652
:1000A000D0E004C02297FE010E948C02C836D1071E
:1000B000C9F70E94C4000C9490020C9400001F9297
:1000C0000F920FB60F9211242F933F938F939F930C
:1000D000EF93FF9380910A0190910B01FC01E05096
:1000E000FF4F20812F7020930C01FC01EE5FFE4F2B
:1000F0003081232B28B9019690930B0180930A013C
:10010000029724F010920B0110920A011092B20093
:10011000FF91EF919F918F913F912F910F900FBE83
:100120000F901F9018958DE08093000181E08093DF
:10013000010168EC70E080E090E00E94BA0184E088
:100140008093000187E08093010168EC70E080E01B
:1001500090E00E94BA0182E0809300018EE08093DB
:10016000010168EC70E080E090E00E94BA018BE051
:100170008093000188E08093010168EC70E080E0EA
:1001800090E00E94BA0108950E94E4018FEF87B9C0
:100190008091B00084608093B0008091B0008C7F2B
:1001A0008093B0008091B0008C7F8093B0008091EC
:1001B000B6008093B60080917000816080937000DB
:1001C0001092B2000E949300FDCF88E091E09093DE
:1001D0000E0180930D010895862F0E941E0208953E
:1001E0001F920F920FB60F9211242F933F934F93AC
:1001F0005F936F937F938F939F93AF93BF93EF938F
:10020000FF9380910F0190911001892B29F0E091CB
:100210000F01F09110010995FF91EF91BF91AF91FE
:100220009F918F917F916F915F914F913F912F910E
:100230000F900FBE0F901F9018951F920F920FB640
:100240000F9211242F933F934F935F936F937F935C
:100250008F939F93AF93BF93EF93FF93809111017F
:1002600090911201892B29F0E0911101F091120176
:100270000995FF91EF91BF91AF919F918F917F91E0
:100280006F915F914F913F912F910F900FBE0F9003
:100290001F9018951F920F920FB60F9211242F9353
:1002A0008F939F93AF93BF9380911301909114010B
:1002B000A0911501B09116010196A11DB11D809369
:1002C000130190931401A0931501B093160180912E
:1002D000170190911801A0911901B0911A01805055
:1002E000904CAF4FBF4F8093170190931801A0938C
:1002F0001901B0931A0127C080911701909118013C
:10030000A0911901B0911A0180589E43A040B040BD
:100310008093170190931801A0931901B0931A01CB
:1003200080911B0190911C01A0911D01B0911E01B3
:100330000196A11DB11D80931B0190931C01A093F8
:100340001D01B0931E018091170190911801A09199
:100350001901B0911A0181589E43A040B04060F647
:10036000BF91AF919F918F912F910F900FBE0F90E2
:100370001F901895EF92FF920F931F937B018C01B2
:100380008FB7F89440911B0150911C0160911D01A1
:1003900070911E018FBF2FB7F89480911B0190912F
:1003A0001C01A0911D01B0911E012FBF841B950B54
:1003B000A60BB70BE816F9060A071B0760F71F9193
:1003C0000F91FF90EF900895789484B5826084BD7A
:1003D00084B5816084BD85B5826085BD85B5816049
:1003E00085BDEEE6F0E0808181608083E1E8F0E0A9
:1003F000808182608083808181608083E0E8F0E09A
:10040000808181608083E1EBF0E080818460808383
:10041000E0EBF0E0808181608083EAE7F0E08081BA
:10042000846080838081826080838081816080831A
:100430008081806880831092C1000895982F8091F8
:10044000C00085FFFCCF9093C60008951F920F92C5
:100450000FB60F9211242F933F934F935F936F9397
:100460007F938F939F93AF93BF93EF93FF934091AD
:10047000C600E0911F01F0912001CF01019660E8D4
:1004800070E00E9463029C01809121019091220101
:100490002817390739F0ED5DFE4F40833093200176
:1004A00020931F01FF91EF91BF91AF919F918F9189
:1004B0007F916F915F914F913F912F910F900FBE60
:1004C0000F901F90189597FB092E07260AD077FDED
:1004D00004D00CD006D000201AF4709561957F4F9F
:1004E0000895F6F7909581959F4F0895AA1BBB1B21
:1004F00051E107C0AA1FBB1FA617B70710F0A61B24
:10050000B70B881F991F5A95A9F780959095BC0144
:10051000CD010895EE0FFF1F0590F491E02D099491
:04052000F894FFCF7D
:0A052400070E201000000000EC009C
:00000001FF
