:100000000C9435000C94CF010C94FC010C945D0011
:100010000C945D000C945D000C945D000C945D00EC
:100020000C945D000C945D000C945D000C945D00DC
:100030000C945D000C945D000C945D000C945D00CC
:100040000C9429020C945D000C943E030C945D000A
:100050000C945D000C945D000C945D000C945D00AC
:100060000C945D000C945D00B40011241FBECFEF12
:10007000D4E0DEBFCDBF11E0A0E0B1E0EEECF7E0F0
:1000800002C005900D92A830B107D9F711E0A8E0A1
:10009000B1E001C01D92A23AB107E1F710E0CAE653
:1000A000D0E004C02297FE010E94E103C836D107C8
:1000B000C9F70E94AD000C94E5030C940000F99977
:1000C000FECF72BD61BDF89A80B5089560910901B7
:1000D00070910A0188E091E00E945F0080930B011B
:1000E0006091090170910A018CE091E00E94B201D7
:1000F00060E071E08CE091E00E94C40040910B014F
:1001000050E060E070E02AE030E08CE091E00E9496
:10011000BA018CE091E00E94DC008091090190918D
:100120000A01019690930A01809309018050924040
:1001300021F410920A011092090164EF71E080E04D
:1001400090E00E949902089540E855E260E070E076
:100150008CE091E00E94BF0008950E94C3020E94BB
:10016000A4000E946600FDCF86E091E090930D010F
:1001700080930C010895862F0E9436030895CB01C9
:10018000BA010E94FD0208950F931F93CF93DF934E
:100190008C01EB0109C02196D801ED91FC910190F1
:1001A000F081E02DC801099568816623A1F7DF91F0
:1001B000CF911F910F9108950F931F938C01DC0134
:1001C000ED91FC910190F081E02D6DE00995D80151
:1001D000ED91FC910190F081E02D6AE0C801099554
:1001E0001F910F9108952F923F924F925F926F92BD
:1001F0007F928F929F92AF92BF92CF92DF92EF92B7
:10020000FF920F931F93DF93CF93CDB7DEB7A097E5
:100210000FB6F894DEBF0FBECDBF1C016A017B0193
:10022000411551056105710549F4DC01ED91FC9121
:100230000190F081E02D60E3099554C08824992451
:100240005401422E55246624772401E010E00C0F5F
:100250001D1F080D191DC701B601A30192010E94BF
:100260008E03F80160830894811C911CA11CB11CB1
:10027000C701B601A30192010E948E03C901DA01F0
:100280006C017D01C114D104E104F104F1F681E0B7
:10029000E82EF12CEC0EFD1EE80CF91C3E01089432
:1002A000611C711CD501C4010197A109B1096C0140
:1002B000C818D90814C0F601EE0DFF1D60816A3020
:1002C00010F4605D01C0695CD101ED91FC91019079
:1002D000F081E02DC10109950894E108F1086E1440
:1002E0007F0449F7A0960FB6F894DEBF0FBECDBFCE
:1002F000CF91DF911F910F91FF90EF90DF90CF9002
:10030000BF90AF909F908F907F906F905F904F9035
:100310003F902F900895EF92FF920F931F93CF93EA
:10032000DF93EC017A018B0177FF0FC0E881F9813F
:100330000190F081E02D6DE2099510950095F09403
:10034000E094E11CF11C011D111D2AE0B801A70178
:10035000CE010E94F300DF91CF911F910F91FF908A
:10036000EF900895AB01662757FD6095762F0E94A8
:100370008B010895DC012115310541F4ED91FC91CB
:100380000190F081E02D642F099508952A30310500
:1003900019F40E948B0108950E94F30008951F92A2
:1003A0000F920FB60F9211242F933F934F935F93A9
:1003B0006F937F938F939F93AF93BF93EF93FF932D
:1003C00080910E0190910F01892B29F0E0910E018F
:1003D000F0910F010995FF91EF91BF91AF919F911E
:1003E0008F917F916F915F914F913F912F910F90DE
:1003F0000FBE0F901F9018951F920F920FB60F927D
:1004000011242F933F934F935F936F937F938F9319
:100410009F93AF93BF93EF93FF93809110019091BF
:100420001101892B29F0E0911001F091110109953A
:10043000FF91EF91BF91AF919F918F917F916F91BC
:100440005F914F913F912F910F900FBE0F901F9092
:1004500018951F920F920FB60F9211242F938F931E
:100460009F93AF93BF938091120190911301A0913C
:100470001401B09115010196A11DB11D80931201C7
:1004800090931301A0931401B0931501809116016C
:1004900090911701A0911801B09119018050904CD2
:1004A000AF4FBF4F8093160190931701A09318018F
:1004B000B093190127C08091160190911701A09166
:1004C0001801B091190180589E43A040B04080931C
:1004D000160190931701A0931801B0931901809110
:1004E0001A0190911B01A0911C01B0911D01019670
:1004F000A11DB11D80931A0190931B01A0931C01B3
:10050000B0931D018091160190911701A0911801DF
:10051000B091190181589E43A040B04060F6BF9150
:10052000AF919F918F912F910F900FBE0F901F90C1
:100530001895EF92FF920F931F937B018C018FB759
:10054000F89440911A0150911B0160911C01709127
:100550001D018FBF2FB7F89480911A0190911B0154
:10056000A0911C01B0911D012FBF841B950BA60B00
:10057000B70BE816F9060A071B0760F71F910F91E2
:10058000FF90EF900895789484B5826084BD84B51F
:10059000816084BD85B5826085BD85B5816085BD7E
:1005A000EEE6F0E0808181608083E1E8F0E0808128
:1005B00082608083808181608083E0E8F0E08081D8
:1005C00081608083E1EBF0E0808184608083E0EBF8
:1005D000F0E0808181608083EAE7F0E080818460E0
:1005E000808380818260808380818160808380813C
:1005F000806880831092C1000895EF92FF920F935C
:100600001F937B018C0122E030E040E050E00E942B
:10061000B003205C3D4B404F5F4FCA01B901A801B8
:1006200097010E94B003C901DA010197A109B1093C
:10063000292F3A2F4B2F552747FD5A950196A11D7B
:10064000B11D2093C50081508093C400E1ECF0E01F
:1006500080818061808380818860808380818068E0
:1006600080831F910F91FF90EF900895982F8091B4
:10067000C00085FFFCCF9093C60008951F920F9293
:100680000FB60F9211242F933F934F935F936F9365
:100690007F938F939F93AF93BF93EF93FF9340917B
:1006A000C600E0911E01F0911F01CF01019660E8A4
:1006B00070E00E947B039C018091200190912101B8
:1006C0002817390739F0EE5DFE4F408330931F0144
:1006D00020931E01FF91EF91BF91AF919F918F9158
:1006E0007F916F915F914F913F912F910F900FBE2E
:1006F0000F901F90189597FB092E07260AD077FDBB
:1007000004D049D006D000201AF4709561957F4F2F
:100710000895F6F7909581959F4F0895A1E21A2EBE
:10072000AA1BBB1BFD010DC0AA1FBB1FEE1FFF1F95
:10073000A217B307E407F50720F0A21BB30BE40BE5
:10074000F50B661F771F881F991F1A9469F760952C
:100750007095809590959B01AC01BD01CF010895E6
:1007600097FB092E05260ED057FD04D0D7DF0AD0FF
:10077000001C38F450954095309521953F4F4F4FD0
:100780005F4F0895F6F790958095709561957F4F2E
:100790008F4F9F4F0895AA1BBB1B51E107C0AA1F93
:1007A000BB1FA617B70710F0A61BB70B881F991F12
:1007B0005A95A9F780959095BC01CD010895EE0F4B
:0E07C000FF1F0590F491E02D0994F894FFCFEF
:0807CE00090000000000BB005F
:00000001FF
