:100000000C945B000C943B020C9468020C948300EB
:100010000C9483000C9483000C9483000C94830054
:100020000C9483000C9483000C9483000C94830044
:100030000C9483000C9483000C9483000C94830034
:100040000C9495020C9483000C9432040C9483005D
:100050000C9483000C9483000C9483000C94830014
:100060000C9483000C948300000024272A000025B0
:10007000282B000023262904040404040404040299
:100080000202020202030303030303010204081035
:100090002040800102040810200102040810200002
:1000A0000000070002010000030406000000000039
:1000B00000000000300211241FBECFEFD4E0DEBFED
:1000C000CDBF11E0A0E0B1E0ECE3F9E002C00590A3
:1000D0000D92A231B107D9F711E0A2E1B1E001C060
:1000E0001D92AC3AB107E1F710E0C6EBD0E004C0D6
:1000F0002297FE010E949804C43BD107C9F70E94D1
:100100002B020C949C040C940000CF93DF9310926C
:1001100013011092120113C0809100010E94690323
:100120006EE170E080E090E00E9405038091120192
:1001300090911301059690931301809312016091A1
:100140001201709113016F3F710531F32CF310927E
:10015000130110921201CFEFD0E02AC0BE01681B3C
:10016000790B7093150160931401809100010E9436
:1001700069036091120170911301809102010E9444
:1001800069036091120170911301809106010E9430
:1001900069036EE170E080E090E00E9405038091C9
:1001A000120190911301059690931301809312010F
:1001B00080911201909113018F3F910579F274F2B1
:1001C0001092130110921201CFEFD0E03AC0CE018D
:1001D000861B970B90931501809314018091000169
:1001E0000E946903609112017091130180910401D2
:1001F0000E946903609112017091130180910801BE
:100200000E946903609114017091150180910201AF
:100210000E9469036091140170911501809106019B
:100220000E9469036EE170E080E090E00E940503A7
:100230008091120190911301059690931301809380
:10024000120160911201709113016F3F710509F065
:100250000CF4BDCF1092130110921201CFEFD0E039
:1002600042C0BE01681B790B7093150160931401A5
:10027000809100010E946903609114017091150141
:10028000809104010E94690360911401709115012D
:10029000809108010E94690360911201709113011D
:1002A00080910A010E94690360911201709113010B
:1002B000809102010E946903609112017091130103
:1002C000809106010E9469036EE170E080E090E099
:1002D0000E9405038091120190911301059690935D
:1002E00013018093120180911201909113018F3FAD
:1002F000910509F00CF4B5CF109213011092120180
:10030000CFEFD0E03AC0CE01861B970B909315013A
:1003100080931401809104010E946903609112018D
:1003200070911301809108010E946903609114018A
:100330007091150180910A010E9469036091140176
:1003400070911501809102010E946903609114016E
:1003500070911501809106010E9469036EE170E0C1
:1003600080E090E00E9405038091120190911301BA
:100370000596909313018093120160911201709180
:1003800013016F3F710509F00CF4BDCF10921301FA
:1003900010921201CFEFD0E02AC0BE01681B790B8A
:1003A0007093150160931401809104010E94690308
:1003B0006091140170911501809108010E946903F8
:1003C000609112017091130180910A010E946903EA
:1003D0006EE170E080E090E00E94050380911201E0
:1003E00090911301059690931301809312018091CF
:1003F0001201909113018F3F910579F274F21092DE
:10040000130110921201CFEFD0E01AC0BE01681B99
:10041000790B709315016093140180910A010E9479
:1004200069036EE170E080E090E00E940503809136
:10043000120190911301059690931301809312017C
:1004400080911201909113018F3F9105F9F2F4F21E
:10045000DF91CF9108950E942F030E948500FDCF68
:1004600080E191E090931701809316010895862F03
:100470000E942A0408951F920F920FB60F92112422
:100480002F933F934F935F936F937F938F939F939C
:10049000AF93BF93EF93FF9380911801909119014F
:1004A000892B29F0E0911801F09119010995FF912C
:1004B000EF91BF91AF919F918F917F916F915F91DC
:1004C0004F913F912F910F900FBE0F901F90189555
:1004D0001F920F920FB60F9211242F933F934F93B9
:1004E0005F936F937F938F939F93AF93BF93EF939C
:1004F000FF9380911A0190911B01892B29F0E091C3
:100500001A01F0911B010995FF91EF91BF91AF91F5
:100510009F918F917F916F915F914F913F912F911B
:100520000F900FBE0F901F9018951F920F920FB64D
:100530000F9211242F938F939F93AF93BF9380912A
:100540001C0190911D01A0911E01B0911F01019607
:10055000A11DB11D80931C0190931D01A0931E014C
:10056000B0931F018091200190912101A09122015F
:10057000B09123018050904CAF4FBF4F809320012A
:1005800090932101A0932201B093230127C0809171
:10059000200190912101A0912201B0912301805866
:1005A0009E43A040B0408093200190932101A093EE
:1005B0002201B09323018091240190912501A09103
:1005C0002601B09127010196A11DB11D8093240140
:1005D00090932501A0932601B093270180912001DB
:1005E00090912101A0912201B091230181589E4355
:1005F000A040B04060F6BF91AF919F918F912F9135
:100600000F900FBE0F901F901895EF92FF920F93CF
:100610001F937B018C018FB7F89440912401509176
:10062000250160912601709127018FBF2FB7F894A3
:100630008091240190912501A0912601B09127017C
:100640002FBF841B950BA60BB70BE816F9060A07FC
:100650001B0760F71F910F91FF90EF90089578941A
:1006600084B5826084BD84B5816084BD85B58260B7
:1006700085BD85B5816085BDEEE6F0E08081816055
:100680008083E1E8F0E08081826080838081816006
:100690008083E0E8F0E0808181608083E1EBF0E03E
:1006A000808184608083E0EBF0E0808181608083E2
:1006B000EAE7F0E0808184608083808182608083CB
:1006C0008081816080838081806880831092C100F6
:1006D00008951F93CF93DF93182FEB0161E00E94E1
:1006E000C103E12FF0E0E156FF4F8491833051F4D4
:1006F00080918000806880938000D0938900C093AF
:1007000088003BC0843051F48091800080628093E7
:100710008000D0938B00C0938A002FC0813039F4C1
:10072000209729F184B5806884BDC7BD26C082307A
:1007300039F42097E1F084B5806284BDC8BD1DC046
:10074000863041F48091B00080688093B000C093FF
:10075000B30013C0873041F48091B0008062809371
:10076000B000C093B40009C0C038D10514F460E0F3
:1007700001C061E0812F0E94DF03DF91CF911F91C3
:100780000895282F30E0C90185579F4FFC019491AF
:1007900029583F4FF9018491882381F0E82FF0E038
:1007A000E859FF4FE491F0E0662329F480819095A9
:1007B0008923808308958081892B80830895482F21
:1007C00050E0CA0181569F4FFC012491CA01855710
:1007D0009F4FFC01949149585F4FFA0134913323A4
:1007E000C1F1222331F1233021F4809180008F77F1
:1007F00005C0243031F4809180008F7D809380008B
:1008000018C0213019F484B58F7704C0223021F448
:1008100084B58F7D84BD0DC0263021F48091B00059
:100820008F7705C0273029F48091B0008F7D8093A9
:10083000B000E32FF0E0E359FF4FE491F0E06623CE
:1008400029F4808190958923808308958081892B64
:1008500080830895982F8091C00085FFFCCF9093EE
:10086000C60008951F920F920FB60F9211242F9376
:100870003F934F935F936F937F938F939F93AF9328
:10088000BF93EF93FF934091C600E0912801F09150
:100890002901CF01019660E870E00E946F049C017D
:1008A00080912A0190912B012817390739F0E45DD6
:1008B000FE4F40833093290120932801FF91EF914F
:1008C000BF91AF919F918F917F916F915F914F9168
:1008D0003F912F910F900FBE0F901F90189597FB8F
:1008E000092E07260AD077FD04D00CD006D00020B0
:1008F0001AF4709561957F4F0895F6F7909581955C
:100900009F4F0895AA1BBB1B51E107C0AA1FBB1F25
:10091000A617B70710F0A61BB70B881F991F5A958B
:10092000A9F780959095BC01CD010895EE0FFF1FAA
:0C0930000590F491E02D0994F894FFCF9D
:10093C00050009000A00030006000B00000000007F
:02094C00370270
:00000001FF
