:100000000C945B000C9474010C94A1010C9483007B
:100010000C9483000C9483000C9483000C94830054
:100020000C9483000C9483000C9483000C94830044
:100030000C9483000C9483000C9483000C94830034
:100040000C947C020C9483000C94D6010C948300D5
:100050000C9483000C9483000C9483000C94830014
:100060000C9483000C948300000024272A000025B0
:10007000282B000023262904040404040404040299
:100080000202020202030303030303010204081035
:100090002040800102040810200102040810200002
:1000A0000000070002010000030406000000000039
:1000B00000000000690111241FBECFEFD4E0DEBFB5
:1000C000CDBF11E0A0E0B1E0E6ECF6E002C00590A3
:1000D0000D92A031B107D9F711E0A0E1B1E001C064
:1000E0001D92A63AB107E1F710E0C6EBD0E004C0DC
:1000F0002297FE010E945D03C43BD107C9F70E940D
:1001000062010C9461030C9400008091020161E093
:100110000E9413028091040161E00E941302809109
:10012000060161E00E94130286E061E00E94130272
:1001300087E061E00E94130288E061E00E94130200
:1001400008958091000161E00E94310280910201D6
:1001500061E00E9413028091020161E00E9431027D
:100160008091040160E00E9413028091060160E02A
:100170000E94130286E060E00E94310287E060E0A6
:100180000E94310288E060E00E9431028091080103
:10019000909109010E94EC028091020160E00E94AE
:1001A000310286E061E00E94310287E061E00E9456
:1001B000310288E061E00E94310280910801909153
:1001C00009010E94EC028091020160E00E9413028A
:1001D0008091040161E00E9413028091040161E0BA
:1001E0000E9431028091060160E00E94130286E0C5
:1001F00060E00E94310287E061E00E94310288E005
:1002000060E00E94310280910801909109010E94F2
:10021000EC0287E060E00E9431028091040160E01E
:100220000E94310286E061E00E94310287E060E0D6
:100230000E94310288E061E00E9431028091080151
:10024000909109010E94EC028091020160E00E94FD
:1002500013028091040160E00E9413028091060164
:1002600061E00E9413028091060161E00E94310268
:1002700086E060E00E94310287E060E00E94310287
:1002800088E060E00E9431028091080190910901AC
:100290000E94EC028091060160E00E94310286E03B
:1002A00061E00E94310287E061E00E94310288E053
:1002B00061E00E94310280910801909109010E9441
:1002C000EC0208950E94FA020E9485000E94A1009B
:1002D000FDCF8EE091E0909311018093100108957D
:1002E000862F0E94CE0108951F920F920FB60F9293
:1002F00011242F933F934F935F936F937F938F932B
:100300009F93AF93BF93EF93FF93809112019091CE
:100310001301892B29F0E0911201F0911301099545
:10032000FF91EF91BF91AF919F918F917F916F91CD
:100330005F914F913F912F910F900FBE0F901F90A3
:1003400018951F920F920FB60F9211242F933F937F
:100350004F935F936F937F938F939F93AF93BF93CD
:10036000EF93FF938091140190911501892B29F04F
:10037000E0911401F09115010995FF91EF91BF9162
:10038000AF919F918F917F916F915F914F913F912D
:100390002F910F900FBE0F901F901895982F80915E
:1003A000C00085FFFCCF9093C60008951F920F9266
:1003B0000FB60F9211242F933F934F935F936F9338
:1003C0007F938F939F93AF93BF93EF93FF9340914E
:1003D000C600E0911601F0911701CF01019660E887
:1003E00070E00E9434039C018091180190911901E2
:1003F0002817390739F0EA5DFE4F40833093170123
:1004000020931601FF91EF91BF91AF919F918F9132
:100410007F916F915F914F913F912F910F900FBE00
:100420000F901F901895282F30E0C90185579F4FD6
:10043000FC01949129583F4FF9018491882381F060
:10044000E82FF0E0E859FF4FE491F0E0662329F44B
:10045000808190958923808308958081892B808372
:100460000895482F50E0CA0181569F4FFC01249106
:10047000CA0185579F4FFC01949149585F4FFA017B
:1004800034913323C1F1222331F1233021F48091BF
:1004900080008F7705C0243031F4809180008F7DFB
:1004A0008093800018C0213019F484B58F7704C080
:1004B000223021F484B58F7D84BD0DC0263021F417
:1004C0008091B0008F7705C0273029F48091B0006B
:1004D0008F7D8093B000E32FF0E0E359FF4FE4916C
:1004E000F0E0662329F48081909589238083089524
:1004F0008081892B808308951F920F920FB60F92EF
:1005000011242F938F939F93AF93BF9380911A01E0
:1005100090911B01A0911C01B0911D010196A11D9C
:10052000B11D80931A0190931B01A0931C01B093FD
:100530001D0180911E0190911F01A0912001B09199
:1005400021018050904CAF4FBF4F80931E0190937C
:100550001F01A0932001B093210127C080911E01AB
:1005600090911F01A0912001B091210180589E43DC
:10057000A040B04080931E0190931F01A0932001E2
:10058000B09321018091220190912301A091240137
:10059000B09125010196A11DB11D80932201909378
:1005A0002301A0932401B093250180911E01909115
:1005B0001F01A0912001B091210181589E43A040CC
:1005C000B04060F6BF91AF919F918F912F910F90A6
:1005D0000FBE0F901F901895019759F0FC01EE0F78
:1005E000FF1FEE0FFF1F32978FB7F8943197F1F787
:1005F0008FBF0895789484B5826084BD84B581608E
:1006000084BD85B5826085BD85B5816085BDEEE61A
:10061000F0E0808181608083E1E8F0E080818260A9
:100620008083808181608083E0E8F0E08081816068
:100630008083E1EBF0E0808184608083E0EBF0E098
:10064000808181608083EAE7F0E08081846080833C
:1006500080818260808380818160808380818068E6
:1006600080831092C100089597FB092E07260AD0B7
:1006700077FD04D00CD006D000201AF47095619557
:100680007F4F0895F6F7909581959F4F0895AA1B87
:10069000BB1B51E107C0AA1FBB1FA617B70710F06D
:1006A000A61BB70B881F991F5A95A9F7809590959F
:1006B000BC01CD010895EE0FFF1F0590F491E02DD0
:0606C0000994F894FFCF3D
:1006C6000D00030004000500320000000000700168
:00000001FF
