:100000000C945B000C94B4010C94E1010C948300FB
:100010000C9483000C9483000C9483000C94830054
:100020000C9483000C9483000C9483000C94830044
:100030000C9483000C9483000C9483000C94830034
:100040000C94BC020C9483000C9416020C94830054
:100050000C9483000C9483000C9483000C94830014
:100060000C9483000C948300000024272A000025B0
:10007000282B000023262904040404040404040299
:100080000202020202030303030303010204081035
:100090002040800102040810200102040810200002
:1000A0000000070002010000030406000000000039
:1000B00000000000A90111241FBECFEFD4E0DEBF75
:1000C000CDBF11E0A0E0B1E0EAE9F7E002C00590A1
:1000D0000D92A631B107D9F711E0A6E1B1E001C058
:1000E0001D92A03BB107E1F710E0C6EBD0E004C0E1
:1000F0002297FE010E94C703C43BD107C9F70E94A3
:10010000A2010C94CB030C9400008091000161E0EB
:100110000E9453028091020161E00E94530280918B
:10012000040161E00E94530286E061E00E945302F4
:1001300087E061E00E94530288E061E00E94530280
:100140000895EF92FF920F931F937C01809100011D
:1001500061E00E9453028091000161E00E947102FF
:100160008091020160E00E9453028091040160E0EE
:100170000E94530286E060E00E94710287E060E026
:100180000E94710288E060E00E9471020027F7FC83
:100190000095102FC801B7010E943A038091000119
:1001A00060E00E94710286E061E00E94710287E0D7
:1001B00061E00E94710288E061E00E947102C80162
:1001C000B7010E943A038091000160E00E9453024F
:1001D0008091020161E00E9453028091020161E07E
:1001E0000E9471028091040160E00E94530286E047
:1001F00060E00E94710287E061E00E94710288E085
:1002000060E00E947102C801B7010E943A0387E0D2
:1002100060E00E9471028091020160E00E94710220
:1002200086E061E00E94710287E060E00E94710256
:1002300088E061E00E947102C801B7010E943A03A0
:100240008091000160E00E9453028091020160E011
:100250000E9453028091040161E00E945302809148
:10026000040161E00E94710286E060E00E94710278
:1002700087E060E00E94710288E060E00E94710205
:10028000C801B7010E943A038091040160E00E9416
:10029000710286E061E00E94710287E061E00E94E5
:1002A000710288E061E00E947102C801B7010E94FA
:1002B0003A031F910F91FF90EF9008950E942C0335
:1002C00020911601309117014091180150911901A8
:1002D000621B730B840B950B20910C0130910D0167
:1002E00040910E0150910F01261737074807590713
:1002F00010F50E942C0360931601709317018093F0
:100300001801909319012091080130910901809101
:100310000601909107018217930749F480910A0121
:1003200090910B01909307018093060104C03093D4
:1003300007012093060180910601909107010E9418
:10034000A10008950E9464030E9485000E945E013E
:10035000FDCF84E191E090931B0180931A010895F1
:10036000862F0E940E0208951F920F920FB60F92D1
:1003700011242F933F934F935F936F937F938F93AA
:100380009F93AF93BF93EF93FF9380911C01909144
:100390001D01892B29F0E0911C01F0911D010995A7
:1003A000FF91EF91BF91AF919F918F917F916F914D
:1003B0005F914F913F912F910F900FBE0F901F9023
:1003C00018951F920F920FB60F9211242F933F93FF
:1003D0004F935F936F937F938F939F93AF93BF934D
:1003E000EF93FF9380911E0190911F01892B29F0BB
:1003F000E0911E01F0911F010995FF91EF91BF91CE
:10040000AF919F918F917F916F915F914F913F91AC
:100410002F910F900FBE0F901F901895982F8091DD
:10042000C00085FFFCCF9093C60008951F920F92E5
:100430000FB60F9211242F933F934F935F936F93B7
:100440007F938F939F93AF93BF93EF93FF934091CD
:10045000C600E0912001F0912101CF01019660E8F2
:1004600070E00E949E039C018091220190912301E3
:100470002817390739F0E05DFE4F408330932101A2
:1004800020932001FF91EF91BF91AF919F918F91A8
:100490007F916F915F914F913F912F910F900FBE80
:1004A0000F901F901895282F30E0C90185579F4F56
:1004B000FC01949129583F4FF9018491882381F0E0
:1004C000E82FF0E0E859FF4FE491F0E0662329F4CB
:1004D000808190958923808308958081892B8083F2
:1004E0000895482F50E0CA0181569F4FFC01249186
:1004F000CA0185579F4FFC01949149585F4FFA01FB
:1005000034913323C1F1222331F1233021F480913E
:1005100080008F7705C0243031F4809180008F7D7A
:100520008093800018C0213019F484B58F7704C0FF
:10053000223021F484B58F7D84BD0DC0263021F496
:100540008091B0008F7705C0273029F48091B000EA
:100550008F7D8093B000E32FF0E0E359FF4FE491EB
:10056000F0E0662329F480819095892380830895A3
:100570008081892B808308951F920F920FB60F926E
:1005800011242F938F939F93AF93BF938091240156
:1005900090912501A0912601B09127010196A11DFE
:1005A000B11D8093240190932501A0932601B0935F
:1005B00027018091280190912901A0912A01B091F1
:1005C0002B018050904CAF4FBF4F809328019093E8
:1005D0002901A0932A01B0932B0127C08091280103
:1005E00090912901A0912A01B0912B0180589E433E
:1005F000A040B0408093280190932901A0932A0144
:10060000B0932B0180912C0190912D01A0912E018E
:10061000B0912F010196A11DB11D80932C019093E3
:100620002D01A0932E01B0932F018091280190916C
:100630002901A0912A01B0912B0181589E43A0402D
:10064000B04060F6BF91AF919F918F912F910F9025
:100650000FBE0F901F9018958FB7F89420912C0122
:1006600030912D0140912E0150912F018FBFB90182
:10067000CA010895EF92FF920F931F937B018C01A3
:100680008FB7F89440912C0150912D0160912E016B
:1006900070912F018FBF2FB7F89480912C0190910A
:1006A0002D01A0912E01B0912F012FBF841B950B1E
:1006B000A60BB70BE816F9060A071B0760F71F9190
:1006C0000F91FF90EF900895789484B5826084BD77
:1006D00084B5816084BD85B5826085BD85B5816046
:1006E00085BDEEE6F0E0808181608083E1E8F0E0A6
:1006F000808182608083808181608083E0E8F0E097
:10070000808181608083E1EBF0E080818460808380
:10071000E0EBF0E0808181608083EAE7F0E08081B7
:100720008460808380818260808380818160808317
:100730008081806880831092C100089597FB092E04
:1007400007260AD077FD04D00CD006D000201AF47A
:10075000709561957F4F0895F6F7909581959F4F1D
:100760000895AA1BBB1B51E107C0AA1FBB1FA617F8
:10077000B70710F0A61BB70B881F991F5A95A9F74A
:1007800080959095BC01CD010895EE0FFF1F059057
:0A079000F491E02D0994F894FFCFD6
:10079A0003000400050001000100FA0088130000AC
:0607AA0000000000B00198
:00000001FF
