:100000000C9435000C9484010C94B1010C945D00A7
:100010000C945D000C945D000C945D000C945D00EC
:100020000C945D000C945F000C945D000C945D00DA
:100030000C945D000C945D000C945D000C945D00CC
:100040000C94DE010C945D000C94BA020C945D00DB
:100050000C945D000C945D000C945D000C945D00AC
:100060000C945D000C945D00790111241FBECFEF4C
:10007000D4E0DEBFCDBF11E0A0E0B1E0ECE4F6E0FB
:1000800002C005900D92AC30B107D9F711E0ACE099
:10009000B1E001C01D92A53AB107E1F710E0CAE650
:1000A000D0E004C02297FE010E942003C836D10789
:1000B000C9F70E9458010C9424030C9400001F926D
:1000C0000F920FB60F9211242F933F938F939F930C
:1000D000EF93FF9380910C0190910D01FC01E05092
:1000E000FF4F20812770FC01ED5FFE4F3081232BF5
:1000F00020930E0128B9019690930D0180930C0175
:10010000039724F010920D0110920C011092B2008E
:10011000FF91EF919F918F913F912F910F900FBE83
:100120000F901F901895EF92FF920F931F9385E009
:10013000F82EF092000102E000930101F09202011A
:1001400060E971E080E090E00E944E0200930001BF
:10015000F09201010093020160E971E080E090E01B
:100160000E944E02F092000110920101F0920201F1
:1001700064E670E080E090E00E944E021092000180
:10018000F09201011092020164E670E080E090E0DC
:100190000E944E0214E01093000110920101EE241F
:1001A000E394E092020164E670E080E090E00E9457
:1001B0004E0200930001109201010093020164E6D7
:1001C00070E080E090E00E944E02E0920001109208
:1001D00001011093020164E670E080E090E00E946B
:1001E0004E0210920001F09201011092020164E6A9
:1001F00070E080E090E00E944E02109300011092A7
:1002000001011092020160E971E080E090E00E943B
:100210004E0210930001009301011092020160E967
:1002200071E080E090E00E944E0210930001009384
:100230000101E092020160E971E080E090E00E943B
:100240004E02109300010093010183E080930201AC
:1002500060E971E080E090E00E944E02109300019E
:100260000093010117E01093020160E971E080E062
:1002700090E00E944E02F092000100930101109361
:10028000020160E971E080E090E00E944E0210936C
:100290000001009301011093020160E971E080E028
:1002A00090E00E944E021F910F91FF90EF900895F1
:1002B0000E9478028FEF87B98091B00084608093AC
:1002C000B0008091B0008C7F8093B0008091B0002E
:1002D0008C7F8093B0008091B6008093B6008091AF
:1002E00070008160809370001092B2000E949300B1
:1002F000FDCF8AE091E09093100180930F01089563
:10030000862F0E94B20208951F920F920FB60F928D
:1003100011242F933F934F935F936F937F938F930A
:100320009F93AF93BF93EF93FF93809111019091AF
:100330001201892B29F0E0911101F0911201099528
:10034000FF91EF91BF91AF919F918F917F916F91AD
:100350005F914F913F912F910F900FBE0F901F9083
:1003600018951F920F920FB60F9211242F933F935F
:100370004F935F936F937F938F939F93AF93BF93AD
:10038000EF93FF938091130190911401892B29F031
:10039000E0911301F09114010995FF91EF91BF9144
:1003A000AF919F918F917F916F915F914F913F910D
:1003B0002F910F900FBE0F901F9018951F920F92C4
:1003C0000FB60F9211242F938F939F93AF93BF93E8
:1003D0008091150190911601A0911701B09118011B
:1003E0000196A11DB11D8093150190931601A09354
:1003F0001701B09318018091190190911A01A091F1
:100400001B01B0911C018050904CAF4FBF4F8093A7
:10041000190190931A01A0931B01B0931C0127C0EE
:100420008091190190911A01A0911B01B0911C01BA
:1004300080589E43A040B0408093190190931A01C8
:10044000A0931B01B0931C0180911D0190911E018E
:10045000A0911F01B09120010196A11DB11D8093B3
:100460001D0190931E01A0931F01B0932001809164
:10047000190190911A01A0911B01B0911C018158A2
:100480009E43A040B04060F6BF91AF919F918F9185
:100490002F910F900FBE0F901F901895EF92FF9223
:1004A0000F931F937B018C018FB7F89440911D012E
:1004B00050911E0160911F01709120018FBF2FB7D5
:1004C000F89480911D0190911E01A0911F01B0919F
:1004D00020012FBF841B950BA60BB70BE816F9065E
:1004E0000A071B0760F71F910F91FF90EF90089587
:1004F000789484B5826084BD84B5816084BD85B5FF
:10050000826085BD85B5816085BDEEE6F0E08081C5
:1005100081608083E1E8F0E0808182608083808177
:1005200081608083E0E8F0E0808181608083E1EB9E
:10053000F0E0808184608083E0EBF0E08081816086
:100540008083EAE7F0E0808184608083808182603C
:100550008083808181608083808180688083109225
:10056000C1000895982F8091C00085FFFCCF909323
:10057000C60008951F920F920FB60F9211242F9369
:100580003F934F935F936F937F938F939F93AF931B
:10059000BF93EF93FF934091C600E0912101F0914A
:1005A0002201CF01019660E870E00E94F7029C01F1
:1005B00080912301909124012817390739F0EB5DD0
:1005C000FE4F40833093220120932101FF91EF9150
:1005D000BF91AF919F918F917F916F915F914F915B
:1005E0003F912F910F900FBE0F901F90189597FB82
:1005F000092E07260AD077FD04D00CD006D00020A3
:100600001AF4709561957F4F0895F6F7909581954E
:100610009F4F0895AA1BBB1B51E107C0AA1FBB1F18
:10062000A617B70710F0A61BB70B881F991F5A957E
:10063000A9F780959095BC01CD010895EE0FFF1F9D
:0C0640000590F491E02D0994F894FFCF90
:0C064C00050205302818000000008001A5
:00000001FF
