:100000000C945B000C9439010C9466010C948300F1
:100010000C9483000C9483000C9483000C94830054
:100020000C9483000C9485000C9483000C94830042
:100030000C9483000C9483000C9483000C94830034
:100040000C9493010C9483000C94D8020C948300BC
:100050000C9483000C9483000C9483000C94830014
:100060000C9483000C948300000024272A000025B0
:10007000282B000023262904040404040404040299
:100080000202020202030303030303010204081035
:100090002040800102040810200102040810200002
:1000A0000000070002010000030406000000000039
:1000B000000000002E0111241FBECFEFD4E0DEBFF0
:1000C000CDBF11E0A0E0B1E0E8E8F6E002C00590A5
:1000D0000D92AC30B107D9F711E0ACE0B1E001C04E
:1000E0001D92A63AB107E1F710E0C6EBD0E004C0DC
:1000F0002297FE010E943E03C43BD107C9F70E942C
:1001000027010C9442030C9400001F920F920FB62B
:100110000F9211242F933F934F935F936F937F938D
:100120008F939F93AF93BF93EF93FF9380910E01B3
:1001300090910F01885E934091F5E0910C01F09150
:100140000D01EE0FFF1FEE5FFE4F61E080810E9408
:10015000850280910C0190910D01019690930D0103
:1001600080930C01029721F410920D0110920C0162
:10017000E0910C01F0910D01DF01A050BF4F8C9177
:1001800088B9EE0FFF1FEE5FFE4F60E080810E9496
:10019000850281E090E090930F0180930E018091A1
:1001A0000E0190910F01019690930F0180930E0123
:1001B0001092B200FF91EF91BF91AF919F918F91FB
:1001C0007F916F915F914F913F912F910F900FBE53
:1001D0000F901F90189560E08DE00E94850268EEF8
:1001E00073E080E090E00E94030261E08DE00E94F5
:1001F000850268EE73E080E090E00E9403020895BB
:1002000061E0809102010E94670261E08091040137
:100210000E94670261E08DE00E9467028FEF87B95C
:10022000E0EBF0E080818460808380818C7F80833C
:1002300080818C7F8083E6EBF0E080818083E0E743
:10024000F0E08081816080831092B20008950E9466
:100250002D020E9400010E94EB00FDCF8AE091E098
:1002600090931101809310010895862F0E94D0026F
:1002700008951F920F920FB60F9211242F933F9360
:100280004F935F936F937F938F939F93AF93BF939E
:10029000EF93FF938091120190911301892B29F024
:1002A000E0911201F09113010995FF91EF91BF9137
:1002B000AF919F918F917F916F915F914F913F91FE
:1002C0002F910F900FBE0F901F9018951F920F92B5
:1002D0000FB60F9211242F933F934F935F936F9319
:1002E0007F938F939F93AF93BF93EF93FF938091EF
:1002F000140190911501892B29F0E0911401F091DE
:1003000015010995FF91EF91BF91AF919F918F9149
:100310007F916F915F914F913F912F910F900FBE01
:100320000F901F9018951F920F920FB60F921124E5
:100330002F938F939F93AF93BF93809116019091CA
:100340001701A0911801B09119010196A11DB11DCD
:100350008093160190931701A0931801B09319018F
:1003600080911A0190911B01A0911C01B0911D0177
:100370008050904CAF4FBF4F80931A0190931B0158
:10038000A0931C01B0931D0127C080911A01909188
:100390001B01A0911C01B0911D0180589E43A040FB
:1003A000B04080931A0190931B01A0931C01B0935D
:1003B0001D0180911E0190911F01A0912001B0911B
:1003C00021010196A11DB11D80931E0190931F0173
:1003D000A0932001B093210180911A0190911B01FB
:1003E000A0911C01B0911D0181589E43A040B040D6
:1003F00060F6BF91AF919F918F912F910F900FBE9B
:100400000F901F901895EF92FF920F931F937B010F
:100410008C018FB7F89440911E0150911F0160919B
:100420002001709121018FBF2FB7F89480911E0198
:1004300090911F01A0912001B09121012FBF841B39
:10044000950BA60BB70BE816F9060A071B0760F712
:100450001F910F91FF90EF900895789484B582607A
:1004600084BD84B5816084BD85B5826085BD85B558
:10047000816085BDEEE6F0E0808181608083E1E807
:10048000F0E0808182608083808181608083E0E809
:10049000F0E0808181608083E1EBF0E08081846026
:1004A0008083E0EBF0E0808181608083EAE7F0E028
:1004B000808184608083808182608083808181608C
:1004C00080838081806880831092C1000895282FE6
:1004D00030E0C90185579F4FFC01949129583F4F47
:1004E000F9018491882381F0E82FF0E0E859FF4F6B
:1004F000E491F0E0662329F480819095892380833C
:1005000008958081892B80830895482F50E0CA0187
:1005100081569F4FFC012491CA0185579F4FFC01D2
:10052000949149585F4FFA0134913323C1F122234A
:1005300031F1233021F4809180008F7705C0243081
:1005400031F4809180008F7D8093800018C021302D
:1005500019F484B58F7704C0223021F484B58F7DDF
:1005600084BD0DC0263021F48091B0008F7705C086
:10057000273029F48091B0008F7D8093B000E32F65
:10058000F0E0E359FF4FE491F0E0662329F4808125
:1005900090958923808308958081892B8083089595
:1005A000982F8091C00085FFFCCF9093C6000895DE
:1005B0001F920F920FB60F9211242F933F934F93D8
:1005C0005F936F937F938F939F93AF93BF93EF93BB
:1005D000FF934091C600E0912201F0912301CF01E9
:1005E000019660E870E00E9415039C01809124014F
:1005F000909125012817390739F0EA5DFE4F4083B5
:100600003093230120932201FF91EF91BF91AF918D
:100610009F918F917F916F915F914F913F912F911A
:100620000F900FBE0F901F90189597FB092E07266D
:100630000AD077FD04D00CD006D000201AF47095B3
:1006400061957F4F0895F6F7909581959F4F089596
:10065000AA1BBB1B51E107C0AA1FBB1FA617B707E8
:1006600010F0A61BB70B881F991F5A95A9F7809504
:100670009095BC01CD010895EE0FFF1F0590F491F8
:08068000E02D0994F894FFCF6E
:0C068800070E080009000000000035010A
:00000001FF
