:100000000C9462000C948A000C948A000C948A0070
:100010000C948A000C948A000C948A000C948A0038
:100020000C948A000C948C000C948A000C948A0026
:100030000C948A000C948A000C948A000C948A0018
:100040000C9490030C948A000C9490010C948A00F8
:100050000C948A000C948A000C948A000C948A00F8
:100060000C948A000C948A000000000024002700F1
:100070002A0000000000250028002B0000000000DE
:1000800023002600290004040404040404040202DA
:100090000202020203030303030301020408102007
:1000A0004080010204081020010204081020000012
:1000B0000007000201000003040600000000000029
:1000C0000000850211241FBECFEFD4E0DEBFCDBFFC
:1000D00011E0A0E0B1E0E2E0FAE002C005900D928C
:1000E000A630B107D9F711E0A6E0B1E001C01D923A
:1000F000A43CB107E1F710E0C4ECD0E004C02297C3
:10010000FE010E94FB04C23CD107C9F70E9489018D
:100110000C94FF040C9400001F920F920FB60F92E4
:1001200011241092B2000F900FBE0F901F901895DF
:10013000CF92DF92EF92FF921F93CF93DF93182F0E
:100140000E9400046B017C01C12FD0E016C00E9408
:1001500000046C197D098E099F09695E7340804017
:10016000904058F086EA91E04FEF50E060E070E098
:1001700020E030E00E947B03F5CF86EA91E00E9408
:100180004A028C179D0719F781E0DF91CF911F91EB
:10019000FF90EF90DF90CF900895CF92DF92EF9293
:1001A000FF920F931F93CF93DF9380EE0E949800EE
:1001B000882381F086EA91E040EF50E060E070E053
:1001C00020E030E00E947B0380EC0E9498008823AE
:1001D00081F00BC086EA91E04FEF50E060E070E004
:1001E00020E030E00E947B03F5CF8DE061E00E94CB
:1001F0004804EE24FF248DE0C82ED12C80EA0E9412
:100200009800882321F08CE061E00E944804EC9C77
:10021000E001ED9CD00DFC9CD00D1124C85FDE4F99
:1002200000E010E086EA91E00E9436028823A1F007
:1002300086EA91E00E944A02AC0190930701809304
:1002400006018883662757FD6095762F86EA91E040
:1002500020E030E00E947B030F5F1F4F21960D309E
:10026000110501F780EB0E949800882321F08BE0B4
:1002700061E00E94480486EA91E040EA50E060E0D4
:1002800070E020E030E00E947B030894E11CF11C48
:1002900082E0E816F10409F0B1CF80ED0E949800E9
:1002A000882321F08AE061E00E94480486EA91E018
:1002B00040E950E060E070E020E030E00E947B0325
:1002C000DF91CF911F910F91FF90EF90DF90CF9032
:1002D0000895E0EBF0E080818460808380818C7FF2
:1002E000808380818C7F8083E6EBF0E08081808357
:1002F000E0E7F0E08081816080831092B200789422
:1003000086EA91E040E052EC61E070E00E94CD01AD
:1003100008950E940E040E9469010E94CD00FDCF45
:100320001F920F920FB60F9211242F933F934F936A
:100330005F936F937F938F939F93AF93BF93EF934D
:10034000FF934091C600E091A201F091A301CF017B
:10035000019660E870E00E9495049C018091A401E0
:100360009091A5012817390739F0EE5DFE4F4083C3
:100370003093A3012093A201FF91EF91BF91AF9120
:100380009F918F917F916F915F914F913F912F91AD
:100390000F900FBE0F901F901895AF92BF92CF9203
:1003A000DF92EF92FF920F931F93CF93DF936C0135
:1003B0007A018B01DC011496AD90BC901597CB01AE
:1003C000BA0122E030E040E050E00E94CA04205C24
:1003D0003D4B404F5F4FCA01B901A80197010E94F0
:1003E000CA04C901DA010197A109B109292F3A2FDD
:1003F0004B2F552747FD5A950196A11DB11DE501CB
:100400002883E601EE81FF8181508083EA85FB85A8
:10041000208141E050E0CA010E8402C0880F991F7C
:100420000A94E2F7282B2083EA85FB852081CA0104
:100430000F8402C0880F991F0A94E2F7282B2083AB
:10044000EA85FB858081088802C0440F551F0A9405
:10045000E2F7842B8083DF91CF911F910F91FF9062
:10046000EF90DF90CF90BF90AF900895DC0112968F
:10047000ED91FC911397E058FF4F81919191805835
:100480009F4F20813181821B930B60E870E00E94B6
:1004900095040895CF93DF93DC011296ED91FC91C2
:1004A0001397EF01CE57DF4F48815981E058FF4F36
:1004B00080819181E058F0408417950719F42FEF5F
:1004C0003FEF0CC0E40FF51F2081CA01019660E8E0
:1004D00070E00E9495049983888330E0C901DF9120
:1004E000CF910895FC01A085B18521898C9190E080
:1004F000022E02C0959587950A94E2F780FFF6CF09
:100500000484F585E02D6083089584E091E0909364
:10051000A7018093A60182E291E09093A9018093C4
:10052000A80185EC90E09093AB018093AA0184EC44
:1005300090E09093AD018093AC0180EC90E09093BB
:10054000AF018093AE0181EC90E09093B101809374
:10055000B00186EC90E09093B3018093B20184E007
:100560008093B40183E08093B50187E08093B60166
:1005700085E08093B70108952F923F924F925F924A
:100580006F927F928F929F92AF92BF92CF92DF92A3
:10059000EF92FF920F931F93DF93CF93CDB7DEB708
:1005A000A0970FB6F894DEBF0FBECDBF1C016A0145
:1005B0007B01411551056105710549F4DC01ED919F
:1005C000FC910190F081E02D60E3099554C08824EE
:1005D00099245401422E55246624772401E010E02A
:1005E0000C0F1D1F080D191DC701B601A3019201B3
:1005F0000E94A804F80160830894811C911CA11C2E
:10060000B11CC701B601A30192010E94A804C9014F
:10061000DA016C017D01C114D104E104F104F1F6A9
:1006200081E0E82EF12CEC0EFD1EE80CF91C3E01D9
:100630000894611C711CD501C4010197A109B1097D
:100640006C01C818D90814C0F601EE0DFF1D6081B9
:100650006A3010F4605D01C0695CD101ED91FC91DC
:100660000190F081E02DC10109950894E108F1089D
:100670006E147F0449F7A0960FB6F894DEBF0FBE44
:10068000CDBFCF91DF911F910F91FF90EF90DF9041
:10069000CF90BF90AF909F908F907F906F905F9022
:1006A0004F903F902F900895EF92FF920F931F93DA
:1006B000CF93DF93EC017A018B0177FF0FC0E881C4
:1006C000F9810190F081E02D6DE20995109500957A
:1006D000F094E094E11CF11C011D111DCE01B80144
:1006E000A7012AE00E94BC02DF91CF911F910F91D8
:1006F000FF90EF900895DC012115310541F4ED9153
:10070000FC910190F081E02D642F099508952A3025
:10071000310519F40E94540308950E94BC02089503
:100720001F920F920FB60F9211242F938F939F93C6
:10073000AF93BF938091B8019091B901A091BA0194
:10074000B091BB010196A11DB11D8093B80190939A
:10075000B901A093BA01B093BB018091BC01909103
:10076000BD01A091BE01B091BF018050904CAF4F30
:10077000BF4F8093BC019093BD01A093BE01B09385
:10078000BF0127C08091BC019091BD01A091BE0125
:10079000B091BF0180589E43A040B0408093BC01FF
:1007A0009093BD01A093BE01B093BF018091C001A1
:1007B0009091C101A091C201B091C3010196A11D08
:1007C000B11D8093C0019093C101A093C201B09369
:1007D000C3018091BC019091BD01A091BE01B09177
:1007E000BF0181589E43A040B04060F6BF91AF91D9
:1007F0009F918F912F910F900FBE0F901F90189582
:100800008FB7F8942091C0013091C1014091C2018D
:100810005091C3018FBFB901CA010895789484B57E
:10082000826084BD84B5816084BD85B5826085BDEC
:1008300085B5816085BDEEE6F0E0808181608083D2
:10084000E1E8F0E080818260808380818160808344
:10085000E0E8F0E0808181608083E1EBF0E080817E
:1008600084608083E0EBF0E0808181608083EAE750
:10087000F0E08081846080838081826080838081D9
:10088000816080838081806880831092C100089598
:10089000482F50E0CA0182559F4FFC012491CA01A4
:1008A00086569F4FFC0194914A575F4FFA0134914D
:1008B0003323D1F1222331F1233021F480918000C0
:1008C0008F7705C0243031F4809180008F7D809334
:1008D000800018C0213019F484B58F7704C022300D
:1008E00021F484B58F7D84BD0DC0263021F4809124
:1008F000B0008F7705C0273029F48091B0008F7D3C
:100900008093B000E32FF0E0EE0FFF1FEE58FF4F93
:10091000A591B491662329F48C91909589238C93A9
:1009200008958C91892B8C93089597FB092E0726A7
:100930000AD077FD04D049D006D000201AF4709573
:1009400061957F4F0895F6F7909581959F4F089593
:10095000A1E21A2EAA1BBB1BFD010DC0AA1FBB1FC3
:10096000EE1FFF1FA217B307E407F50720F0A21B35
:10097000B30BE40BF50B661F771F881F991F1A94A2
:1009800069F760957095809590959B01AC01BD01CC
:10099000CF01089597FB092E05260ED057FD04D0F0
:1009A000D7DF0AD0001C38F450954095309521953A
:1009B0003F4F4F4F5F4F0895F6F790958095709594
:1009C00061957F4F8F4F9F4F0895AA1BBB1B51E12D
:1009D00007C0AA1FBB1FA617B70710F0A61BB70BAF
:1009E000881F991F5A95A9F780959095BC01CD0154
:1009F0000895EE0FFF1F0590F491E02D0994F894EF
:020A0000FFCF26
:060A02000000000072027A
:00000001FF
