:100000000C945B000C94BE000C94EB000C948300E9
:100010000C9483000C9483000C9483000C94830054
:100020000C9483000C9483000C9483000C94830044
:100030000C9483000C9483000C9483000C94830034
:100040000C9418010C9483000C9433020C948300DC
:100050000C9483000C9483000C9483000C94830014
:100060000C9483000C948300000024272A000025B0
:10007000282B000023262904040404040404040299
:100080000202020202030303030303010204081035
:100090002040800102040810200102040810200002
:1000A0000000070002010000030406000000000039
:1000B00000000000B30011241FBECFEFD4E0DEBF6C
:1000C000CDBF11E0A0E0B1E0EEE3F5E002C00590A5
:1000D0000D92A630B107D9F711E0A6E0B1E001C05A
:1000E0001D92AC39B107E1F710E0C6EBD0E004C0D7
:1000F0002297FE010E949902C43BD107C9F70E94D2
:10010000AE000C949D020C94000061E083E00E941C
:10011000C20161E085E00E94C20161E086E00E94C8
:10012000C20161E089E00E94C20161E08BE00E94AF
:10013000C20161E083E00E94E00161E085E00E948D
:10014000E00161E086E00E94E00161E089E00E9458
:10015000E00161E08BE00E94E00108950E948801C7
:100160000E948500FFCF84E091E090930701809387
:1001700006010895862F0E942B0208951F920F9268
:100180000FB60F9211242F933F934F935F936F936A
:100190007F938F939F93AF93BF93EF93FF93809140
:1001A000080190910901892B29F0E0910801F09153
:1001B00009010995FF91EF91BF91AF919F918F91A7
:1001C0007F916F915F914F913F912F910F900FBE53
:1001D0000F901F9018951F920F920FB60F92112437
:1001E0002F933F934F935F936F937F938F939F933F
:1001F000AF93BF93EF93FF9380910A0190910B010E
:10020000892B29F0E0910A01F0910B010995FF91EA
:10021000EF91BF91AF919F918F917F916F915F917E
:100220004F913F912F910F900FBE0F901F901895F7
:100230001F920F920FB60F9211242F938F939F93BB
:10024000AF93BF9380910C0190910D01A0910E018D
:10025000B0910F010196A11DB11D80930C019093E7
:100260000D01A0930E01B0930F01809110019091A8
:100270001101A0911201B09113018050904CAF4F29
:10028000BF4F8093100190931101A0931201B0937E
:10029000130127C08091100190911101A0911201CA
:1002A000B091130180589E43A040B040809310014C
:1002B00090931101A0931201B09313018091140146
:1002C00090911501A0911601B09117010196A11D01
:1002D000B11D8093140190931501A0931601B09362
:1002E00017018091100190911101A0911201B0911C
:1002F000130181589E43A040B04060F6BF91AF917A
:100300009F918F912F910F900FBE0F901F90189576
:10031000789484B5826084BD84B5816084BD85B5E0
:10032000826085BD85B5816085BDEEE6F0E08081A7
:1003300081608083E1E8F0E0808182608083808159
:1003400081608083E0E8F0E0808181608083E1EB80
:10035000F0E0808184608083E0EBF0E08081816068
:100360008083EAE7F0E0808184608083808182601E
:100370008083808181608083808180688083109207
:10038000C1000895282F30E0C90185579F4FFC0117
:10039000949129583F4FF9018491882381F0E82FE7
:1003A000F0E0E859FF4FE491F0E0662329F4808102
:1003B00090958923808308958081892B8083089577
:1003C000482F50E0CA0181569F4FFC012491CA0179
:1003D00085579F4FFC01949149585F4FFA01349122
:1003E0003323C1F1222331F1233021F480918000A5
:1003F0008F7705C0243031F4809180008F7D809309
:10040000800018C0213019F484B58F7704C02230E1
:1004100021F484B58F7D84BD0DC0263021F48091F8
:10042000B0008F7705C0273029F48091B0008F7D10
:100430008093B000E32FF0E0E359FF4FE491F0E048
:10044000662329F480819095892380830895808193
:10045000892B80830895982F8091C00085FFFCCF61
:100460009093C60008951F920F920FB60F92112419
:100470002F933F934F935F936F937F938F939F93AC
:10048000AF93BF93EF93FF934091C600E0911801A3
:10049000F0911901CF01019660E870E00E947002AE
:1004A0009C0180911A0190911B012817390739F09E
:1004B000E45EFE4F40833093190120931801FF91B1
:1004C000EF91BF91AF919F918F917F916F915F91CC
:1004D0004F913F912F910F900FBE0F901F90189545
:1004E00097FB092E07260AD077FD04D00CD006D042
:1004F00000201AF4709561957F4F0895F6F7909556
:1005000081959F4F0895AA1BBB1B51E107C0AA1FED
:10051000BB1FA617B70710F0A61BB70B881F991FA4
:100520005A95A9F780959095BC01CD010895EE0FDD
:0E053000FF1F0590F491E02D0994F894FFCF81
:06053E0000000000BA00FD
:00000001FF
