:100000000C945B000C94F5020C9422030C94830076
:100010000C9483000C9483000C9483000C94830054
:100020000C9483000C948D010C9483000C94830039
:100030000C9483000C9483000C9483000C94830034
:100040000C944F030C9483000C9419050C948300BA
:100050000C9483000C9483000C9483000C94830014
:100060000C9483000C948300000024272A000025B0
:10007000282B000023262904040404040404040299
:100080000202020202030303030303010204081035
:100090002040800102040810200102040810200002
:1000A0000000070002010000030406000000000039
:1000B00000000000C40111241FBECFEFD4E0DEBF5A
:1000C000CDBF11E0A0E0B1E0E2E6FFE002C00590A4
:1000D0000D92AC33B107D9F711E0ACE3B1E001C048
:1000E0001D92A93DB107E1F710E0C6EBD0E004C0D6
:1000F0002297FE010E94AB07C43BD107C9F70E94BB
:1001000086010C94AF070C9400009B01AC0160E0E9
:1001100074E284EF99EC0E94BB0520E030E840E8EF
:1001200053E40E94570520E030E040E05FE30E9486
:1001300057050E942306DC01CB011092B00022E09B
:100140002093B10021E0209370008093B2000895C5
:100150006F927F928F929F92AF92BF92CF92DF92D7
:10016000EF92FF920F931F936AE070E080E090E0BF
:100170000E94BF0360913C0170913D0180913E015E
:1001800090913F01680F791F70933F0160933E018A
:10019000809140019091410101969093410180939B
:1001A00040018436910508F476C080E090E00E941A
:1001B000540620E030E048EC52E40E94BB055B01AD
:1001C0006C01109241011092400110923F01109277
:1001D0003E016091420170E0882777FD8095982F5D
:1001E0000E9456069B01AC0160E070E080E893E459
:1001F0000E9456059B01AC01C601B5010E94BB05DA
:100200003B014C0160E071E083E491E00E94D40185
:10021000C601B5010E9423067B0183E491E00E94A0
:10022000CD0261E171E083E491E00E94D4010027F6
:10023000F7FC0095102FC801B7010E9456069B01DC
:10024000AC01C601B5010E94560520E030E048EC43
:1002500052E40E94E2060E94230683E491E00E9499
:10026000CD0263E171E083E491E00E94D40120E0DB
:1002700030E048EC52E4C401B3010E94E2060E945F
:10028000230683E491E00E94CD026BE171E083E4F8
:1002900091E00E9403021F910F91FF90EF90DF9079
:1002A000CF90BF90AF909F908F907F906F90089568
:1002B0000F931F9361E089E00E94230403E411E09F
:1002C00040E855E260E070E0C8010E94CF016DE1B6
:1002D00071E0C8010E94030260E074E48CE297E4DC
:1002E0000E9485008093420169E271E0C8010E948A
:1002F000D4014091420150E060E070E020E130E044
:10030000C8010E94EA021F910F9108950E94E9031B
:100310000E9458010E94A800FDCF1F920F920FB6B5
:100320000F9211242F933F934F935F936F937F937B
:100330008F939F93AF93BF93EF93FF9389E00E94B6
:100340008C0460E0892B09F461E089E00E9441049B
:100350008091B20080933C0110923D019091420146
:10036000890F8093B200FF91EF91BF91AF919F9160
:100370008F917F916F915F914F913F912F910F904E
:100380000FBE0F901F9018958AE391E0909344015F
:10039000809343010895862F0E9411050895CB0193
:1003A000BA010E94D80408950F931F93CF93DF934F
:1003B0008C01EB0109C02196D801ED91FC910190CF
:1003C000F081E02DC801099568816623A1F7DF91CE
:1003D000CF911F910F9108950F931F938C01DC0112
:1003E000ED91FC910190F081E02D6DE00995D8012F
:1003F000ED91FC910190F081E02D6AE0C801099532
:100400001F910F9108950F931F938C010E94D401A7
:10041000C8010E94EC011F910F9108952F923F9205
:100420004F925F926F927F928F929F92AF92BF9204
:10043000CF92DF92EF92FF920F931F93DF93CF93B0
:10044000CDB7DEB7A0970FB6F894DEBF0FBECDBF15
:100450001C016A017B01411551056105710549F4D3
:10046000DC01ED91FC910190F081E02D60E30995B4
:1004700054C0882499245401422E5524662477249C
:1004800001E010E00C0F1D1F080D191DC701B6017A
:10049000A30192010E945807F80160830894811C0F
:1004A000911CA11CB11CC701B601A30192010E94BD
:1004B0005807C901DA016C017D01C114D104E104BE
:1004C000F104F1F681E0E82EF12CEC0EFD1EE80CB3
:1004D000F91C3E010894611C711CD501C4010197EF
:1004E000A109B1096C01C818D90814C0F601EE0DB4
:1004F000FF1D60816A3010F4605D01C0695CD1014C
:10050000ED91FC910190F081E02DC10109950894D5
:10051000E108F1086E147F0449F7A0960FB6F8942D
:10052000DEBF0FBECDBFCF91DF911F910F91FF9026
:10053000EF90DF90CF90BF90AF909F908F907F9083
:100540006F905F904F903F902F900895EF92FF92A1
:100550000F931F93CF93DF93EC017A018B0177FF09
:100560000FC0E881F9810190F081E02D6DE20995DD
:1005700010950095F094E094E11CF11C011D111DF3
:100580002AE0B801A701CE010E940E02DF91CF91AF
:100590001F910F91FF90EF900895AB01662757FDD3
:1005A0006095762F0E94A6020895DC012115310581
:1005B00041F4ED91FC910190F081E02D642F0995BB
:1005C00008952A30310519F40E94A60208950E9468
:1005D0000E0208950F931F938C010E94D502C8014B
:1005E0000E94EC011F910F9108951F920F920FB678
:1005F0000F9211242F933F934F935F936F937F93A9
:100600008F939F93AF93BF93EF93FF938091450197
:1006100090914601892B29F0E0914501F091460126
:100620000995FF91EF91BF91AF919F918F917F912C
:100630006F915F914F913F912F910F900FBE0F904F
:100640001F9018951F920F920FB60F9211242F939F
:100650003F934F935F936F937F938F939F93AF934A
:10066000BF93EF93FF938091470190914801892BAD
:1006700029F0E0914701F09148010995FF91EF9130
:10068000BF91AF919F918F917F916F915F914F91AA
:100690003F912F910F900FBE0F901F9018951F92B2
:1006A0000F920FB60F9211242F938F939F93AF93B6
:1006B000BF938091490190914A01A0914B01B09163
:1006C0004C010196A11DB11D8093490190934A01EF
:1006D000A0934B01B0934C0180914D0190914E013C
:1006E000A0914F01B09150018050904CAF4FBF4F3F
:1006F00080934D0190934E01A0934F01B093500110
:1007000027C080914D0190914E01A0914F01B09171
:10071000500180589E43A040B04080934D0190937B
:100720004E01A0934F01B0935001809151019091DF
:100730005201A0915301B09154010196A11DB11D28
:100740008093510190935201A0935301B0935401AF
:1007500080914D0190914E01A0914F01B0915001B7
:1007600081589E43A040B04060F6BF91AF919F91E9
:100770008F912F910F900FBE0F901F901895EF92B1
:10078000FF920F931F937B018C018FB7F8944091D8
:1007900051015091520160915301709154018FBFEA
:1007A0002FB7F8948091510190915201A09153017B
:1007B000B09154012FBF841B950BA60BB70BE81605
:1007C000F9060A071B0760F71F910F91FF90EF9042
:1007D0000895789484B5826084BD84B5816084BDB9
:1007E00085B5826085BD85B5816085BDEEE6F0E0AA
:1007F000808181608083E1E8F0E080818260808395
:10080000808181608083E0E8F0E080818160808386
:10081000E1EBF0E0808184608083E0EBF0E08081B8
:1008200081608083EAE7F0E080818460808380815A
:100830008260808380818160808380818068808302
:100840001092C1000895282F30E0C90185579F4FAD
:10085000FC01949129583F4FF9018491882381F03C
:10086000E82FF0E0E859FF4FE491F0E0662329F427
:10087000808190958923808308958081892B80834E
:100880000895482F50E0CA0181569F4FFC012491E2
:10089000CA0185579F4FFC01949149585F4FFA0157
:1008A00034913323C1F1222331F1233021F480919B
:1008B00080008F7705C0243031F4809180008F7DD7
:1008C0008093800018C0213019F484B58F7704C05C
:1008D000223021F484B58F7D84BD0DC0263021F4F3
:1008E0008091B0008F7705C0273029F48091B00047
:1008F0008F7D8093B000E32FF0E0E359FF4FE49148
:10090000F0E0662329F480819095892380830895FF
:100910008081892B80830895482F50E0CA01815639
:100920009F4FFC012491CA0185579F4FFC01949170
:1009300049585F4FFA013491332319F420E030E035
:1009400035C0222331F1233021F4809180008F774C
:1009500005C0243031F4809180008F7D8093800029
:1009600018C0213019F484B58F7704C0223021F4E7
:1009700084B58F7D84BD0DC0263021F48091B000F8
:100980008F7705C0273029F48091B0008F7D809348
:10099000B000E32FF0E0EE58FF4FE491F0E08081EB
:1009A00020E030E0892311F021E030E0C901089512
:1009B000EF92FF920F931F937B018C0122E030E0B6
:1009C00040E050E00E947A07205C3D4B404F5F4F73
:1009D000CA01B901A80197010E947A07C901DA0189
:1009E0000197A109B109292F3A2F4B2F552747FD10
:1009F0005A950196A11DB11D2093C5008150809389
:100A0000C400E1ECF0E080818061808380818860B7
:100A100080838081806880831F910F91FF90EF9089
:100A20000895982F8091C00085FFFCCF9093C60059
:100A300008951F920F920FB60F9211242F933F9398
:100A40004F935F936F937F938F939F93AF93BF93D6
:100A5000EF93FF934091C600E0915501F09156014C
:100A6000CF01019660E870E00E9445079C018091EB
:100A70005701909158012817390739F0E75AFE4F6E
:100A800040833093560120935501FF91EF91BF9120
:100A9000AF919F918F917F916F915F914F913F9116
:100AA0002F910F900FBE0F901F9018955058BB2795
:100AB000AA270ED04DC13ED130F043D120F031F401
:100AC0009F3F11F41EF433C10EF4E095E7FB29C1FA
:100AD000E92F4FD180F3BA17620773078407950790
:100AE00018F071F49EF567C10EF4E0950B2EBA2F45
:100AF000A02D0B01B90190010C01CA01A001112424
:100B0000FF27591B99F0593F50F4503E68F11A16CF
:100B1000F040A22F232F342F4427585FF3CF469560
:100B200037952795A795F0405395C9F77EF41F1682
:100B3000BA0B620B730B840BBAF09150A1F0FF0F4C
:100B4000BB1F661F771F881FC2F70EC0BA0F621F38
:100B5000731F841F48F4879577956795B795F79528
:100B60009E3F08F0B3CF9395880F08F09927EE0FBA
:100B70009795879508950CD0EBC0E3D040F0DAD07C
:100B800030F021F45F3F19F0CCC0511115C1CFC036
:100B9000F0D098F39923C9F35523B1F3951B550B66
:100BA000BB27AA2762177307840738F09F5F5F4F40
:100BB000220F331F441FAA1FA9F333D00E2E3AF081
:100BC000E0E830D091505040E695001CCAF729D09B
:100BD000FE2F27D0660F771F881FBB1F26173707EA
:100BE0004807AB07B0E809F0BB0B802DBF01FF271A
:100BF00093585F4F2AF09E3F510568F092C0DCC0C9
:100C00005F3FECF3983EDCF3869577956795B79553
:100C1000F7959F5FC9F7880F911D9695879597F96E
:100C20000895E1E0660F771F881FBB1F62177307E7
:100C30008407BA0720F0621B730B840BBA0BEE1FFC
:100C400088F7E095089504D06894B111B5C008956F
:100C500098D088F09F5790F0B92F9927B751A0F0FE
:100C6000D1F0660F771F881F991F1AF0BA95C9F740
:100C700012C0B13081F09FD0B1E008959CC0672FC1
:100C8000782F8827B85F39F0B93FCCF386957795F0
:100C90006795B395D9F73EF49095809570956195D9
:100CA0007F4F8F4F9F4F0895E89409C097FB3EF404
:100CB00090958095709561957F4F8F4F9F4F9923A9
:100CC000A9F0F92F96E9BB279395F6958795779527
:100CD0006795B795F111F8CFFAF4BB0F11F460FFE7
:100CE0001BC06F5F7F4F8F4F9F4F16C0882311F03F
:100CF00096E911C0772321F09EE8872F762F05C053
:100D0000662371F096E8862F70E060E02AF09A95ED
:100D1000660F771F881FDAF7880F9695879597F9E2
:100D2000089597F99F6780E870E060E008959FEF6D
:100D300080EC089500240A94161617061806090672
:100D4000089500240A941216130614060506089541
:100D5000092E0394000C11F4882352F0BB0F40F4C9
:100D6000BF2B11F460FF04C06F5F7F4F8F4F9F4F09
:100D7000089557FD9058440F551F59F05F3F71F08B
:100D80004795880F97FB991F61F09F3F79F08795F2
:100D90000895121613061406551FF2CF4695F1DF7B
:100DA00008C0161617061806991FF1CF869571050B
:100DB000610508940895E894BB2766277727CB013F
:100DC00097F908950BD0C4CFB5DF28F0BADF18F03B
:100DD000952309F0A6CFABCF1124EECFCADFA0F345
:100DE000959FD1F3950F50E0551F629FF001729FC0
:100DF000BB27F00DB11D639FAA27F00DB11DAA1FDF
:100E0000649F6627B00DA11D661F829F2227B00D2B
:100E1000A11D621F739FB00DA11D621F839FA00DB6
:100E2000611D221F749F3327A00D611D231F849F06
:100E3000600D211D822F762F6A2F11249F5750405D
:100E40008AF0E1F088234AF0EE0FFF1FBB1F661FF8
:100E5000771F881F91505040A9F79E3F510570F0B1
:100E600060CFAACF5F3FECF3983EDCF38695779591
:100E70006795B795F795E7959F5FC1F7FE2B880FAC
:100E8000911D9695879597F9089597FB092E07264A
:100E90000AD077FD04D049D006D000201AF470950E
:100EA00061957F4F0895F6F7909581959F4F08952E
:100EB000A1E21A2EAA1BBB1BFD010DC0AA1FBB1F5E
:100EC000EE1FFF1FA217B307E407F50720F0A21BD0
:100ED000B30BE40BF50B661F771F881F991F1A943D
:100EE00069F760957095809590959B01AC01BD0167
:100EF000CF01089597FB092E05260ED057FD04D08B
:100F0000D7DF0AD0001C38F45095409530952195D4
:100F10003F4F4F4F5F4F0895F6F79095809570952E
:100F200061957F4F8F4F9F4F0895AA1BBB1B51E1C7
:100F300007C0AA1FBB1FA617B70710F0A61BB70B49
:100F4000881F991F5A95A9F780959095BC01CD01EE
:100F50000895EE0FFF1F0590F491E02D0994F89489
:020F6000FFCFC1
:100F62004C6174656E637920417665726167653A9A
:100F7200002E0020204C6F61643A00250054696DF8
:100F820065723220546573740054696D6572322043
:0C0F92004C6F61643A0000000000CB01CD
:00000001FF
