:100000000C945B000C9437020C9464020C948300F3
:100010000C9483000C9483000C9483000C94830054
:100020000C9483000C9483000C9483000C94830044
:100030000C9483000C9483000C9483000C94830034
:100040000C9417010C9483000C94DA000C94830038
:100050000C9483000C9483000C9483000C94830014
:100060000C9483000C948300000024272A000025B0
:10007000282B000023262904040404040404040299
:100080000202020202030303030303010204081035
:100090002040800102040810200102040810200002
:1000A0000000070002010000030406000000000039
:1000B000000000009D0211241FBECFEFD4E0DEBF80
:1000C000CDBF11E0A0E0B1E0ECEAF5E002C00590A0
:1000D0000D92A631B107D9F711E0A6E1B1E001C058
:1000E0001D92A03BB107E1F710E0C6EBD0E004C0E1
:1000F0002297FE010E94D102C43BD107C9F70E949A
:10010000C7000C94D5020C94000040911601509148
:100110001701FA0183E0EE0FFF1F8A95E1F7E05027
:10012000FF4F20E030E005C0819188B9449A2F5FED
:100130003F4F28303105C4F3309319012093180143
:100140004130510521F461E083E00E94EC01459AC1
:1001500060E083E00E94EC0180911601909117010C
:1001600001969093170180931601029724F0109244
:1001700017011092160188EC90E00E948701089503
:100180008FEF87B961E083E00E94CE010895CFEF41
:10019000D4E0DEBFCDBF0E9494010E94C0000E9447
:1001A0008500FDCF982F8091C00085FFFCCF9093F4
:1001B000C60008951F920F920FB60F9211242F932D
:1001C0003F934F935F936F937F938F939F93AF93DF
:1001D000BF93EF93FF934091C600E0911A01F09115
:1001E0001B01CF01019660E870E00E94A8029C010B
:1001F00080911C0190911D012817390739F0E05DAD
:10020000FE4F408330931B0120931A01FF91EF9121
:10021000BF91AF919F918F917F916F915F914F911E
:100220003F912F910F900FBE0F901F9018951F9226
:100230000F920FB60F9211242F938F939F93AF932A
:10024000BF9380911E0190911F01A0912001B09158
:1002500021010196A11DB11D80931E0190931F01E4
:10026000A0932001B093210180912201909123015C
:10027000A0912401B09125018050904CAF4FBF4F09
:100280008093220190932301A0932401B093250130
:1002900027C08091220190912301A0912401B09167
:1002A000250180589E43A040B04080932201909346
:1002B0002301A0932401B093250180912601909100
:1002C0002701A0912801B09129010196A11DB11D1E
:1002D0008093260190932701A0932801B0932901D0
:1002E0008091220190912301A0912401B0912501D8
:1002F00081589E43A040B04060F6BF91AF919F915E
:100300008F912F910F900FBE0F901F90189501970E
:1003100051F0880F991F880F991F02972FB7F894F3
:100320000197F1F72FBF0895789484B5826084BD5A
:1003300084B5816084BD85B5826085BD85B58160E9
:1003400085BDEEE6F0E0808181608083E1E8F0E049
:10035000808182608083808181608083E0E8F0E03A
:10036000808181608083E1EBF0E080818460808324
:10037000E0EBF0E0808181608083EAE7F0E080815B
:1003800084608083808182608083808181608083BB
:100390008081806880831092C1000895282F3327C0
:1003A000C90185579F4FFC01949129583F4FF9018E
:1003B0008491882381F0E82FFF27E859FF4FE491CB
:1003C000FF27662329F480819095892380830895EF
:1003D0008081892B80830895482F5527CA01815633
:1003E0009F4FFC012491CA0185579F4FFC019491B6
:1003F00049585F4FFA0134913323C1F1222331F17F
:10040000233021F4809180008F7705C0243031F4AF
:10041000809180008F7D8093800018C0213019F476
:1004200084B58F7704C0223021F484B58F7D84BDDC
:100430000DC0263021F48091B0008F7705C02730A1
:1004400029F48091B0008F7D8093B000E32FFF27C7
:10045000E359FF4FE491FF27662329F480819095AB
:100460008923808308958081892B808308951F923A
:100470000F920FB60F9211242F933F934F935F93D8
:100480006F937F938F939F93AF93BF93EF93FF935C
:1004900080912A0190912B01892B29F0E0912A016A
:1004A000F0912B010995FF91EF91BF91AF919F9131
:1004B0008F917F916F915F914F913F912F910F900D
:1004C0000FBE0F901F9018951F920F920FB60F92AC
:1004D00011242F933F934F935F936F937F938F9349
:1004E0009F93AF93BF93EF93FF9380912C019091D3
:1004F0002D01892B29F0E0912C01F0912D01099516
:10050000FF91EF91BF91AF919F918F917F916F91EB
:100510005F914F913F912F910F900FBE0F901F90C1
:100520001895019749F46F5F7F4F31F484E191E0B2
:1005300090932F0180932E0108956FEF7FEF81E05C
:1005400090E00E9491020895862F0E94D2000895A3
:1005500097FB092E07260AD077FD04D00CD006D0D1
:1005600000201AF4709561957F4F0895F6F79095E5
:1005700081959F4F0895AA1BBB1B51E107C0AA1F7D
:10058000BB1FA617B70710F0A61BB70B881F991F34
:100590005A95A9F780959095BC01CD010895EE0F6D
:0C05A000FF1F0590F491E02D0994FFCF9F
:1005AC000100010001000100000100010001000137
:0605BC0000000000A40293
:00000001FF
