:100000000C945B000C9485020C94B2020C94830057
:100010000C9483000C9483000C9483000C94830054
:100020000C9483000C94B5000C9483000C94830012
:100030000C9483000C9483000C9483000C94830034
:100040000C9472010C9483000C9435010C94830081
:100050000C9483000C9483000C9483000C94830014
:100060000C9483000C948300000024272A000025B0
:10007000282B000023262904040404040404040299
:100080000202020202030303030303010204081035
:100090002040800102040810200102040810200002
:1000A0000000070002010000030406000000000039
:1000B00000000000EB0211241FBECFEFD4E0DEBF32
:1000C000CDBF11E0A0E0B1E0E8E4F6E002C00590A9
:1000D0000D92A632B107D9F711E0A6E2B1E001C056
:1000E0001D92A63CB107E1F710E0C6EBD0E004C0DA
:1000F0002297FE010E941F03C43BD107C9F70E944B
:1001000024010C9423030C9400008FEF87B961E065
:1001100083E00E941C0280E090E001C001968230E2
:100120009105E4F390932B0180932A0110922D0105
:1001300010922C018091B00084608093B000809177
:10014000B0008C7F8093B0008091B0008C7F809352
:10015000B0008091B6008093B600809170008160FD
:10016000809370001092B20008951F920F920FB604
:100170000F9211242F933F934F935F936F937F932D
:100180008F939F93AF93BF93EF93FF9380912E0133
:1001900090912F010597E1F540912601509127019B
:1001A000FA0184E0EE0FFF1F8A95E1F7E050FF4F60
:1001B00020E030E005C0819188B9449A2F5F3F4F1D
:1001C00020313105C4F330932901209328014130B7
:1001D000510521F461E083E00E943A02459A60E013
:1001E00083E00E943A0280912601909127010196B6
:1001F0009093270180932601029724F01092270103
:100200001092260181E090E090932F0180932E01BF
:1002100080912E0190912F01019690932F01809350
:100220002E011092B200FF91EF91BF91AF919F917B
:100230008F917F916F915F914F913F912F910F908F
:100240000FBE0F901F901895CFEFD4E0DEBFCDBF4B
:100250000E94E2010E948500FFCF982F8091C0008C
:1002600085FFFCCF9093C60008951F920F920FB6A2
:100270000F9211242F933F934F935F936F937F932C
:100280008F939F93AF93BF93EF93FF934091C600DB
:10029000E0913001F0913101CF01019660E870E00A
:1002A0000E94F6029C01809132019091330128173F
:1002B000390739F0EA5BFE4F4083309331012093D8
:1002C0003001FF91EF91BF91AF919F918F917F91FD
:1002D0006F915F914F913F912F910F900FBE0F90B3
:1002E0001F9018951F920F920FB60F9211242F9303
:1002F0008F939F93AF93BF93809134019091350179
:10030000A0913601B09137010196A11DB11D8093D6
:10031000340190933501A0933601B0933701809159
:10032000380190913901A0913A01B0913B01805080
:10033000904CAF4FBF4F8093380190933901A093F9
:100340003A01B0933B0127C0809138019091390167
:10035000A0913A01B0913B0180589E43A040B0402B
:100360008093380190933901A0933A01B0933B01F7
:1003700080913C0190913D01A0913E01B0913F01DF
:100380000196A11DB11D80933C0190933D01A09366
:100390003E01B0933F018091380190913901A091C5
:1003A0003A01B0913B0181589E43A040B04060F6B5
:1003B000BF91AF919F918F912F910F900FBE0F9092
:1003C0001F901895789484B5826084BD84B581604F
:1003D00084BD85B5826085BD85B5816085BDEEE64D
:1003E000F0E0808181608083E1E8F0E080818260DC
:1003F0008083808181608083E0E8F0E0808181609B
:100400008083E1EBF0E0808184608083E0EBF0E0CA
:10041000808181608083EAE7F0E08081846080836E
:100420008081826080838081816080838081806818
:1004300080831092C1000895282F3327C901855762
:100440009F4FFC01949129583F4FF90184918823D3
:1004500081F0E82FFF27E859FF4FE491FF2766233B
:1004600029F4808190958923808308958081892B48
:1004700080830895482F5527CA0181569F4FFC015C
:100480002491CA0185579F4FFC01949149585F4FB1
:10049000FA0134913323C1F1222331F1233021F4C5
:1004A000809180008F7705C0243031F480918000E6
:1004B0008F7D8093800018C0213019F484B58F7728
:1004C00004C0223021F484B58F7D84BD0DC0263058
:1004D00021F48091B0008F7705C0273029F48091F6
:1004E000B0008F7D8093B000E32FFF27E359FF4FCB
:1004F000E491FF27662329F48081909589238083E6
:1005000008958081892B808308951F920F920FB6E2
:100510000F9211242F933F934F935F936F937F9389
:100520008F939F93AF93BF93EF93FF93809140017D
:1005300090914101892B29F0E0914001F091410116
:100540000995FF91EF91BF91AF919F918F917F910D
:100550006F915F914F913F912F910F900FBE0F9030
:100560001F9018951F920F920FB60F9211242F9380
:100570003F934F935F936F937F938F939F93AF932B
:10058000BF93EF93FF938091420190914301892B98
:1005900029F0E0914201F09143010995FF91EF911B
:1005A000BF91AF919F918F917F916F915F914F918B
:1005B0003F912F910F900FBE0F901F9018950197AC
:1005C00049F46F5F7F4F31F484E291E090934501ED
:1005D0008093440108956FEF7FEF81E090E00E94E7
:1005E000DF020895862F0E942D01089597FB092EA2
:1005F00007260AD077FD04D00CD006D000201AF4CC
:10060000709561957F4F0895F6F7909581959F4F6E
:100610000895AA1BBB1B51E107C0AA1FBB1FA61749
:10062000B70710F0A61BB70B881F991F5A95A9F79B
:1006300080959095BC01CD010895EE0FFF1F0590A8
:08064000F491E02D0994FFCFB5
:10064800010001000100010001000100010001009A
:10065800000100010001000100010001000100018A
:0606680000000000F20298
:00000001FF
