:100000000C945B000C941A010C9447010C9483002F
:100010000C9483000C9483000C9483000C94830054
:100020000C9483000C9483000C9483000C94830044
:100030000C9483000C9483000C9483000C94830034
:100040000C9474010C9483000C94B9020C948300FA
:100050000C9483000C9483000C9483000C94830014
:100060000C9483000C948300000024272A000025B0
:10007000282B000023262904040404040404040299
:100080000202020202030303030303010204081035
:100090002040800102040810200102040810200002
:1000A0000000070002010000030406000000000039
:1000B000000000000F0111241FBECFEFD4E0DEBF0F
:1000C000CDBF11E0A0E0B1E0EAE4F6E002C00590A7
:1000D0000D92AC30B107D9F711E0ACE0B1E001C04E
:1000E0001D92A43AB107E1F710E0C6EBD0E004C0DE
:1000F0002297FE010E941F03C43BD107C9F70E944B
:1001000008010C9423030C94000060E0809100012E
:100110000E94660210920D0110920C0113C060E063
:10012000809102010E94660261E0809102010E94BA
:10013000660280910C0190910D01019690930D0142
:1001400080930C0180910C0190910D0108973CF374
:1001500064EF71E080E090E00E94E40161E0809152
:1001600004010E94660264EF71E080E090E00E946A
:10017000E40160E0809104010E94660261E08091E8
:1001800000010E94660210920D0110920C0113C032
:1001900060E0809102010E94660261E080910201AC
:1001A0000E94660280910C0190910D01019690933E
:1001B0000D0180930C0180910C0190910D01069727
:1001C0003CF364EF71E080E090E00E94E40161E0C4
:1001D000809104010E94660264EF71E080E090E08B
:1001E0000E94E40160E0809104010E94660208958B
:1001F00061E0809100010E94480261E0809102016B
:100200000E94480261E0809104010E944802089522
:100210000E940E020E94F8000E948500FDCF8AE035
:1002200091E090930F0180930E010895862F0E9414
:10023000B10208951F920F920FB60F9211242F93BF
:100240003F934F935F936F937F938F939F93AF935E
:10025000BF93EF93FF938091100190911101892B2F
:1002600029F0E0911001F09111010995FF91EF91B2
:10027000BF91AF919F918F917F916F915F914F91BE
:100280003F912F910F900FBE0F901F9018951F92C6
:100290000F920FB60F9211242F933F934F935F93BA
:1002A0006F937F938F939F93AF93BF93EF93FF933E
:1002B0008091120190911301892B29F0E091120194
:1002C000F09113010995FF91EF91BF91AF919F912B
:1002D0008F917F916F915F914F913F912F910F90EF
:1002E0000FBE0F901F9018951F920F920FB60F928E
:1002F00011242F938F939F93AF93BF9380911401F9
:1003000090911501A0911601B09117010196A11DC0
:10031000B11D8093140190931501A0931601B09321
:1003200017018091180190911901A0911A01B091C3
:100330001B018050904CAF4FBF4F8093180190939A
:100340001901A0931A01B0931B0127C080911801D5
:1003500090911901A0911A01B0911B0180589E4300
:10036000A040B0408093180190931901A0931A0106
:10037000B0931B0180911C0190911D01A0911E0161
:10038000B0911F010196A11DB11D80931C01909396
:100390001D01A0931E01B0931F018091180190913F
:1003A0001901A0911A01B0911B0181589E43A040F0
:1003B000B04060F6BF91AF919F918F912F910F90B8
:1003C0000FBE0F901F901895EF92FF920F931F93FF
:1003D0007B018C018FB7F89440911C0150911D0155
:1003E00060911E0170911F018FBF2FB7F89480910B
:1003F0001C0190911D01A0911E01B0911F012FBF02
:10040000841B950BA60BB70BE816F9060A071B070A
:1004100060F71F910F91FF90EF900895789484B545
:10042000826084BD84B5816084BD85B5826085BDF0
:1004300085B5816085BDEEE6F0E0808181608083D6
:10044000E1E8F0E080818260808380818160808348
:10045000E0E8F0E0808181608083E1EBF0E0808182
:1004600084608083E0EBF0E0808181608083EAE754
:10047000F0E08081846080838081826080838081DD
:10048000816080838081806880831092C10008959C
:10049000282F30E0C90185579F4FFC0194912958BE
:1004A0003F4FF9018491882381F0E82FF0E0E8596B
:1004B000FF4FE491F0E0662329F480819095892331
:1004C000808308958081892B80830895482F50E090
:1004D000CA0181569F4FFC012491CA0185579F4F45
:1004E000FC01949149585F4FFA0134913323C1F1D3
:1004F000222331F1233021F4809180008F7705C0D1
:10050000243031F4809180008F7D8093800018C06A
:10051000213019F484B58F7704C0223021F484B5DA
:100520008F7D84BD0DC0263021F48091B0008F777F
:1005300005C0273029F48091B0008F7D8093B000F2
:10054000E32FF0E0E359FF4FE491F0E0662329F454
:10055000808190958923808308958081892B808371
:100560000895982F8091C00085FFFCCF9093C6001E
:1005700008951F920F920FB60F9211242F933F935D
:100580004F935F936F937F938F939F93AF93BF939B
:10059000EF93FF934091C600E0912001F09121017B
:1005A000CF01019660E870E00E94F6029C01809104
:1005B0002201909123012817390739F0EC5DFE4F95
:1005C00040833093210120932001FF91EF91BF914F
:1005D000AF919F918F917F916F915F914F913F91DB
:1005E0002F910F900FBE0F901F90189597FB092E1B
:1005F00007260AD077FD04D00CD006D000201AF4CC
:10060000709561957F4F0895F6F7909581959F4F6E
:100610000895AA1BBB1B51E107C0AA1FBB1FA61749
:10062000B70710F0A61BB70B881F991F5A95A9F79B
:1006300080959095BC01CD010895EE0FFF1F0590A8
:0A064000F491E02D0994F894FFCF27
:0C064A0008000C000A000000000016016F
:00000001FF
